S012000033442D5072696E7465722E737265638A
S113000014C1000042C1000040C100003EC1000014
S11300103CC100003AC1000038C1000036C10000F4
S113002034C1000032C1000030C100002EC1000004
S11300302CC100002AC1000028C1000026C1000014
S113004024C1000022C1000020C100001EC1000024
S11300501CC100001AC1000018C100009FC50000A7
S113006014C1000064C4000098C400000EC1000064
S11300700CC100000AC1000008C1000006C1000054
S113008004C1000002C1000000C10000FEC0000065
S1130090FCC00000FAC00000F8C00000F6C0000078
S11300A0F4C00000F2C00000F0C00000EEC0000088
S11300B0ECC00000EAC00000E8C00000E6C0000098
S11300C0E4C00000E2C00000E0C00000DEC00000A8
S11300D0DCC00000DAC00000D8C00000D6C00000B8
S11300E0D4C00000FE060107F006F406FA0638073D
S11300F0050709070F07130717071D07210725071A
S113010038072B072F07330700000A0B02090C0DD1
S11301100E080703040100000000000000000000B6
S113012000000000000000000000000000000000CB
S11301300000000012111000000000000000000088
S113014000000000000000000000000000000102A8
S113015010202008081020401020408002010201D5
S1130160080402010102040810204080804020108D
S113017008040201800402018040201008040201E6
S1130180080402010102040810204080010204084E
S11301901020408005050505070508080808020227
S11301A002020A0A0808040404040101010101010D
S11301B001010303030303030303040707070C0CF0
S11301C00C0C0C0C0C0C02020202060606060606B7
S11301D006060B0B0B0B0B0B0B0B00002000230074
S11301E0260029002C002F0032000001000003012A
S11301F00601090100002200250028002B002E0022
S11302003100340002010000050108010B01000067
S11302102100240027002A002D00300033000101B2
S11302200000040107010A01FF0411241FBECFEFDF
S1130230D1E2DEBFCDBF00E00CBF12E0A0E0B2E02F
S1130240EAE4F7E100E00BBF02C007900D92AC3482
S1130250B107D9F722E0ACE4B2E001C01D92A73F98
S1130260B207E1F711E0C5E1D1E000E006C0219753
S11302700109802FFE010E944009C431D10780E0AA
S11302800807A9F7EAD30C94A30BBACE57D144D1EB
S113029026E040E051EE60E070E08CE492E0E4D2CD
S11302A066E072E08CE492E024C4CF92DF92EF9295
S11302B00F931F93CF93DF93CDB7DEB7A4970FB6F9
S11302C0F894DEBF0FBECDBF6FE372E0CE01499656
S11302D0CAD66FE372E0CE014396C5D66FE372E0EF
S11302E0CE010D96C0D66FE372E0CE010796BBD661
S11302F01CA21BA21AA219A218A21F8E82E023D646
S113030011E0892B09F410E08FE01DD601E0892B60
S113031009F400E083E117D6EE24E394892B09F471
S1130320E12C8CE492E09FD1892B09F4D1C060E1E7
S113033072E08CE492E0DDD36CE472E0CE010196CD
S113034016D4BE016F5F7F4FCE014996DBD6CE0136
S1130350019622D6C12CD12CB601CE0149961CD7C8
S1130360FC018081811103C0C12CD12C2DC0B601A8
S1130370CE01499611D7FC018081803221F4B60167
S1130380CE0149964DD7FFEFCF1ADF0AE5CFB6016C
S1130390CE01499601D7FC018081883591F1B601DF
S11303A0CE014996F9D6FC018081883509F44FC005
S11303B0B601CE014996F0D6FC0180818A3509F454
S11303C06CC0FFEFCF1ADF0AB601CE014996E4D61E
S11303D0FC0180818111DBCF72C0B601CE01499648
S11303E0DBD6FC0180818A35A9F08FEFC81AD80AC0
S11303F0B601CE014996D0D6FC016081CE01439668
S1130400B8D6B601CE014996C7D6FC01808189359C
S113041061F7E3CFB601CE014996BED6FC018081D7
S11304208111E3CFBCCFB601CE014996B5D6FC010C
S113043080818A35A9F0FFEFCF1ADF0AB601CE0119
S11304404996AAD6FC016081CE010D9692D6B601DA
S1130450CE014996A1D6FC018081883561F7E3CFAE
S1130460B601CE01499698D6FC0180818111E3CF73
S11304709FCFB601CE0149968FD6FC018081893584
S1130480A9F0FFEFCF1ADF0AB601CE01499684D650
S1130490FC016081CE0107966CD6B601CE01499667
S11304A07BD6FC018081883561F7E3CFB601CE01AC
S11304B0499672D6FC0180818111E3CF82CFCE01AF
S11304C04396B1D6CE010D96AED6CE010796ABD6E5
S11304D0212FAE01415E5F4FBE016F5D7F4FCE01A4
S11304E0839650D0CE01079657D5CE010D9654D59C
S11304F0CE01439651D5CE0149964ED5A4960FB65A
S1130500F894DEBF0FBECDBFDF91CF911F910F9145
S1130510EF90DF90CF90089560E082E0AAD460E08D
S11305208FE0A7D460E083E1A4D461E082E0DDD46D
S113053061E08FE0DAD461E083E1D7C461E087E36E
S113054098D461E08DE395D461E080E392D461E0D6
S113055086E28FD461E088E38CD461E08EE389D4B1
S113056061E085E386D461E081E383D461E088E2DD
S113057080D461E086E37DD461E08CE37AD461E0E9
S11305808EE277C4AF92BF92CF92DF92EF920F9335
S11305901F93CF93DF935C016B01EA01122FFC01DF
S11305A080819181181619062CF4211103C060E092
S11305B086E39BD4F60180819181181619062CF4E8
S11305C0011103C060E08CE390D4888199811816EE
S11305D019062CF4E11003C060E08EE286D461E0D9
S11305E070E080E090E055D3F50180819181181688
S11305F019065CF4111109C061E086E376D4F501B3
S113060080819181019791838083F601808191811A
S1130610181619065CF4011109C061E08CE365D475
S1130620F6018081918101979183808388819981EA
S11306301816190654F4E11008C060E08EE255D48F
S11306408881998101979983888361E070E080E0D3
S113065090E0DF91CF911F910F91EF90DF90CF90B9
S1130660BF90AF9016C3FC01918D228D892F90E02D
S1130670805C9F4F821B91098F7399270895FC0119
S1130680918D828D981731F0828DE80FF11D858D43
S113069090E008958FEF9FEF0895FC01918D828D76
S11306A0981761F0828DDF01A80FB11D5D968C91C2
S11306B0928D9F5F9F73928F90E008958FEF9FEFCD
S11306C00895FC01538D448D252F30E0842F90E054
S11306D0821B930B541710F0CF9608950197089539
S11306E086EF94E0892B39F080E090E0892B19F0B3
S11306F07DD1811125C080E090E0892B41F080E01C
S113070090E0892B21F00E94000081111CC080E040
S113071090E0892B41F080E090E0892B21F00E9449
S11307200000811113C080E090E0892BA1F080E0EB
S113073090E0892B81F00E94000081110AC0089585
S11307400E940000D8CF0E940000E1CF0E94000068
S1130750EACF0C9400000895FC01848DDF01A80FFA
S1130760B11DA35ABF4F2C91848D90E001968F73D5
S11307709927848FA689B7892C93A089B1898C91F4
S113078080648C93938D848D981306C00288F389BA
S1130790E02D80818F7D80830895EF92FF920F93E7
S11307A01F93CF93DF93EC0181E0888F9B8D8C8D19
S11307B0981305C0E889F989808185FD23C0F62E48
S11307C00B8D10E00F5F1F4F0F731127E02E8C8DE0
S11307D0E8120BC00FB607FCFACFE889F9898081CB
S11307E085FFF5CFCE01B8DFF2CF8B8DFE01E80F88
S11307F0F11DE35AFF4FF0820B8FEA89FB89808158
S1130800806207C0EE89FF896083E889F989808165
S11308108064808381E090E0DF91CF911F910F91FC
S1130820FF90EF900895CF93DF93EC01888D882398
S1130830C1F0EA89FB89808185FD05C0A889B98951
S11308408C9186FD0EC00FB607FCF5CF808185FF25
S1130850F2CFA889B9898C9185FFEDCFCE017CDFD9
S1130860E8CFDF91CF910895CF92DF92EF92FF927C
S11308701F93CF93DF93EC016A017B01122FE88968
S1130880F98982E080834115514E61057105A9F013
S113089060E079E08DE390E0A7019601CFD4DA011E
S11308A0C9010197A109B109B695A79597958795AF
S11308B09C01211580E13807A0F0E889F9891082AC
S11308C060E874E88EE190E0A7019601B7D4DA01FC
S11308D0C9010197A109B109B695A795979587957F
S11308E09C01EC85FD853083EE85FF852083188E81
S11308F0EC89FD891083EA89FB898081806180838A
S1130900EA89FB89808188608083EA89FB89808108
S113091080688083EA89FB8980818F7D8083DF9171
S1130920CF911F91FF90EF90DF90CF9008951F9289
S11309300F920FB60F9211240BB60F922F938F9331
S11309409F93EF93FF93E0915C02F0915D028081AD
S1130950E0916202F091630282FD12C09081809165
S113096065028F5F8F7320916602821751F0E091C8
S11309706502F0E0E45BFD4F958F8093650201C052
S11309808081FF91EF919F918F912F910F900BBEDA
S11309900F900FBE0F901F9018951F920F920FB6D5
S11309A00F9211240BB60F922F933F934F935F93A3
S11309B06F937F938F939F93AF93BF93EF93FF9323
S11309C08CE492E0C9DEFF91EF91BF91AF919F91CA
S11309D08F917F916F915F914F913F912F910F90E4
S11309E00BBE0F900FBE0F901F9018958CE492E0F1
S11309F03ADE21E0892B09F420E0822F0895ECE40B
S1130A00F2E01382128288EE93E0A0E0B0E08483E7
S1130A109583A683B7838FE292E09183808385ECEC
S1130A2090E09587848784EC90E09787868780ECB4
S1130A3090E0918B808B81EC90E0938B828B82ECA5
S1130A4090E0958B848B86EC90E0978B868B118E4F
S1130A50128E138E148E0895089554D1FDDF16DC82
S1130A60C0E7D3E022DC2097E9F33ADEFBCFCF9254
S1130A70DF92EF92FF920F931F93CF93DF936C015A
S1130A807A018B01C0E0D0E0CE15DF0581F0D801FA
S1130A906D918D01D601ED91FC910190F081E02DD5
S1130AA0C6011995892B11F02196EECF7E01C7015D
S1130AB0DF91CF911F910F91FF90EF90DF90CF9036
S1130AC008956115710579F0FB0101900020E9F7A3
S1130AD03197AF01461B570BDC01ED91FC9102806D
S1130AE0F381E02D199480E090E008956DE372E0C5
S1130AF0E8CF0F931F93CF93DF93EC01E2DF8C01D8
S1130B00CE01F4DF800F911FDF91CF911F910F91E0
S1130B1008950F931F93CF93DF93EC0189D06887D7
S1130B2079878A879B87E881F9810284F385E02DA0
S1130B30CE01199597FF16C07BD0088519852A85A3
S1130B403B85DC01CB01801B910BA20BB30B0C8109
S1130B501D812E813F8180179107A207B30718F3E7
S1130B608FEF9FEFDF91CF911F910F9108950F9316
S1130B701F93CF93DF93EC018B016FE372E073D289
S1130B80C801C7DF97FD04C0682FCE01F2D2F8CFA9
S1130B90CE01DF91CF911F910F9108951F920F9273
S1130BA00FB60F9211242F933F938F939F93AF937C
S1130BB0BF938091EA029091EB02A091EC02B09174
S1130BC0ED023091E90223E0230F2D3720F4019642
S1130BD0A11DB11D05C026E8230F0296A11DB11D5C
S1130BE02093E9028093EA029093EB02A093EC0233
S1130BF0B093ED028091EE029091EF02A091F00289
S1130C00B091F1020196A11DB11D8093EE02909363
S1130C10EF02A093F002B093F102BF91AF919F91C4
S1130C208F913F912F910F900FBE0F901F901895A9
S1130C302FB7F8946091EA027091EB028091EC0274
S1130C409091ED022FBF08953FB7F8948091EE0282
S1130C509091EF02A091F002B091F10226B5A89B09
S1130C6005C02F3F19F00196A11DB11D3FBFBA2F3A
S1130C70A92F982F8827820F911DA11DB11DBC019A
S1130C80CD0142E0660F771F881F991F4A95D1F75F
S1130C9008958F929F92AF92BF92CF92DF92EF927C
S1130CA0FF926B017C01D0DF4B015C01C114D104C4
S1130CB0E104F104F1F0C1D2C7DFDC01CB018819F2
S1130CC09909AA09BB09883E9340A105B10570F3AF
S1130CD021E0C21AD108E108F10888EE880E83E009
S1130CE0981EA11CB11CC114D104E104F10421F724
S1130CF0DDCFFF90EF90DF90CF90BF90AF909F90AB
S1130D008F900895789484B5826084BD84B58160A1
S1130D1084BD85B5826085BD85B5816085BDEEE6FF
S1130D20F0E0808181608083E1E8F0E010828081DE
S1130D3082608083808181608083E0E8F0E080814C
S1130D4081608083E1EBF0E0808184608083E0EB6C
S1130D50F0E0808181608083E1E9F0E0808182605D
S1130D608083808181608083E0E9F0E0808181601C
S1130D708083E1EAF0E08081826080838081816009
S1130D808083E0EAF0E0808181608083E1E2F1E049
S1130D90808182608083808181608083E0E2F1E0F1
S1130DA0808181608083EAE7F0E0808184608083D1
S1130DB0808182608083808181608083808180687B
S1130DC080831092C100089590E0FC013197E231D4
S1130DD0F10508F04DC08827EE58FF4F8F4F50C2E1
S1130DE0809180008F7703C0809180008F7D8093F5
S1130DF08000089580918000877FF9CF84B58F7734
S1130E0002C084B58F7D84BD08958091B0008F7732
S1130E1003C08091B0008F7D8093B00008958091CD
S1130E2090008F7707C0809190008F7D03C08091E0
S1130E309000877F8093900008958091A0008F7721
S1130E4007C08091A0008F7D03C08091A000877FA0
S1130E508093A0000895809120018F7707C080912E
S1130E6020018F7D03C080912001877F8093200122
S1130E700895CF93DF9390E0FC01E25BFE4F249151
S1130E80FC01EC56FE4F8491882361F190E0880FB9
S1130E90991FFC01E25FFD4FC591D491FC01EC5018
S1130EA0FE4FA591B491611109C09FB7F894888150
S1130EB0209582238883EC912E230BC0623061F449
S1130EC09FB7F8948881322F309583238883EC91DF
S1130ED02E2B2C939FBF06C08FB7F894E8812E2B3E
S1130EE028838FBFDF91CF9108951F93CF93DF9312
S1130EF0282F30E0F901E85FFE4F8491F901E25BAD
S1130F00FE4FD491F901EC56FE4FC491CC23B9F0B5
S1130F10162F811159DFEC2FF0E0EE0FFF1FEC507C
S1130F20FE4FA591B4919FB7F894111104C08C9110
S1130F30D095D82302C0EC91DE2BDC939FBFDF91C8
S1130F40CF911F910895CF93DF93282F30E0F901BB
S1130F50E85FFE4F8491F901E25BFE4FD491F90101
S1130F60EC56FE4FC491CC2389F081112DDFEC2F78
S1130F70F0E0EE0FFF1FE652FE4FA591B491EC9105
S1130F80ED2381E090E021F480E002C080E090E075
S1130F90DF91CF9108950895FC018081918110C261
S1130FA0CF93DF93EC0188819981009709F008D2EF
S1130FB0198218821D821C821B821A82DF91CF91B2
S1130FC008950F931F93CF93DF93EC018B016F5F11
S1130FD07F4F888199817DD2009731F099838883EE
S1130FE01B830A8381E001C080E0DF91CF911F91D0
S1130FF00F910895CF93DF93EC0188819981892B18
S113100029F08A819B818617970758F4CE01D9DF8E
S1131010882341F08C819D81892B19F4E881F98121
S1131020108281E0DF91CF910895EF92FF920F93A8
S11310301F93CF93DF93EC017B018A01BA01DADFBE
S1131040811103C0CE01ACDF06C01D830C83B70140
S1131050888199814DD3CE01DF91CF911F910F915A
S1131060FF90EF900895FC01118210821382128286
S1131070158214826115710549F0FB01019000206D
S1131080E9F73197AF01461B570BCFCF08950F9364
S11310901F93CF93DF938C01EB01FC01808191813D
S11310A00097C1F0688179816115710591F02BEC8D
S11310B037E0232B71F0428153812C813D8142170B
S11310C0530738F015D38C819D81F801958384836F
S11310D012C076D188819981F801918380838A81B5
S11310E09B81938382838C819D81958384831982E0
S11310F018821B821A821D821C82DF91CF911F915C
S11311000F910895CF93DF93EC018617970709F0A9
S1131110BEDFCE01DF91CF910895EF92FF920F933E
S11311201F93CF93DF936115710511F480E01AC00A
S113113041155105B1F07B01EC018C819D818A013F
S1131140080F191FB801CE0155DF882379F32881D0
S113115039818C819D81B701820F931FC9D21D8370
S11311600C8381E0DF91CF911F910F91FF90EF905D
S11311700895CF93DF931F921F92CDB7DEB7698393
S11311801A8241E050E0BE016F5F7F4FC6DF0F90CF
S11311900F90DF91CF910895FC012481358162176E
S11311A0730720F480819181009729F41092F20250
S11311B082EF92E00895860F971F0895CF93DF93EF
S11311C0DC011496ED91FC9115976E177F0728F5B5
S11311D04115510511F1DF01A61BB70B9A01A417A4
S11311E0B50708F49D01DB01EC0188819981E21BBC
S11311F0F30BFD83EC83AF01461B570B260F371F00
S1131200BC01620F731F8A0F9B1F79D2E881F98199
S11312108C819D81E80FF91F1082DF91CF91089591
S11312204FEF5FEFCBCFFC0180819181009709F0F4
S113123030C260E070E0CB0108950895A1E21A2E57
S1131240AA1BBB1BFD010DC0AA1FBB1FEE1FFF1F66
S1131250A217B307E407F50720F0A21BB30BE40BB6
S1131260F50B661F771F881F991F1A9469F76095FD
S11312707095809590959B01AC01BD01CF010895B7
S1131280EE0FFF1F881F8BBF0790F691E02D199476
S11312900F931F93CF93DF938230910510F482E074
S11312A090E0E091F502F091F60220E030E0A0E059
S11312B0B0E0309719F140815181028113814817C0
S11312C05907C8F08417950769F4109731F01296FE
S11312D00C93129713961C9327C00093F502109356
S11312E0F60222C02115310519F04217530718F4EC
S11312F09A01BD01EF01DF01F801DBCF21153105B2
S1131300F9F0281B390B2430310580F48A819B8144
S11313106115710521F0FB019383828304C09093CE
S1131320F6028093F502FE01329644C0FE01E20FFC
S1131330F31F8193919322503109398328833AC052
S11313402091F3023091F402232B41F42091020204
S1131350309103023093F4022093F30220910002AF
S1131360309101022115310541F42DB73EB740916A
S1131370040250910502241B350BE091F302F09115
S1131380F402E217F307A0F42E1B3F0B28173907CA
S113139078F0AC014E5F5F4F2417350748F04E0FCD
S11313A05F1F5093F4024093F3028193919302C020
S11313B0E0E0F0E0CF01DF91CF911F910F9108950C
S11313C0CF93DF93009709F481C0FC013297138215
S11313D01282A091F502B091F602109781F4208157
S11313E03181820F931F2091F3023091F402281768
S11313F0390751F5F093F402E093F30267C0ED016D
S113140020E030E0CE17DF0740F44A815B819E0183
S113141041155105F1F0EA01F5CFD383C283408130
S11314205181840F951FC817D90759F48881998170
S1131430840F951F0296918380838A819B81938375
S113144082832115310529F4F093F602E093F50225
S11314503DC0E901FB83EA8349915991C40FD51F2B
S1131460EC17FD0761F480819181840F951F02962A
S1131470E90199838883828193819B838A83E0E055
S1131480F0E012968D919C911397009719F0FD014D
S1131490DC01F7CF8D919C9111979D012E5F3F4FF9
S11314A0820F931F2091F3023091F4022817390719
S11314B069F4309729F41092F6021092F50202C0F2
S11314C013821282B093F402A093F302DF91CF91BE
S11314D008956F927F928F929F92AF92BF92CF9214
S11314E0DF92EF92FF920F931F93CF93DF930097B6
S11314F081F4CB01DF91CF911F910F91FF90EF9079
S1131500DF90CF90BF90AF909F908F907F906F901F
S1131510BFCEFC01E60FF71F9C0122503109E217F0
S1131520F30708F4A5C0EC01D9010D911C911197A2
S113153006171707A8F00530110508F497C0C8016D
S113154004978617970708F491C002501109061BE7
S1131550170B019311936D937C93CF0131DF86C0F8
S11315605B01A01AB10A4C01800E911EA091F502F4
S1131570B091F602612C712CE12CF12C109709F436
S113158046C08D919C911197A815B905B1F56C01D0
S113159042E0C40ED11CCA14DB0478F14C018A1851
S11315A09B08640142E0C40ED11C1296BC901297B1
S11315B01396AC91B5E0CB16D10440F0B282A3836C
S11315C091828082D9016D937C9309C00E5F1F4F75
S11315D0800F911FF90191838083EB2DFA2FE11481
S11315E0F10431F0D7011396FC93EE9312973EC0A9
S11315F0F093F602E093F50239C06816790608F410
S11316003C017D0112960D90BC91A02DB7CF809125
S1131610F3029091F40288169906E1F466167706AF
S1131620C8F48091000290910102009741F48DB7B3
S11316309EB74091040250910502841B950BE81754
S1131640F907B0F4F093F402E093F302F901718323
S113165060830CC0CB011CDE7C01009749F0A8011B
S1131660BE013DD0CE01ACDEC70104C0CE0102C034
S113167080E090E0DF91CF911F910F91FF90EF9068
S1131680DF90CF90BF90AF909F908F907F906F909E
S113169008951F93FC0199278827BC01E8941191B0
S11316A01032E9F3193010F01E30C8F31B3249F040
S11316B01D3241F4689405C031D0610F711D811D44
S11316C0911D119110531A30B8F33EF49095809502
S11316D0709561957F4F8F4F9F4F1F910895FB0128
S11316E0DC0102C001900D9241505040D8F708959A
S11316F0FB01DC0101900D920020E1F70895FB014C
S1131700DC014150504048F001900D920020C9F78F
S113171001C01D9241505040E0F70895592F482FC1
S1131720372F262F660F771F881F991F660F771F85
S1131730881F991F620F731F841F951F660F771FE1
S10D1740881F991F0895F894FFCF45
S113174A0000F7022000436F6E6E656374656400DF
S113175A506F64616A20696C6F7363206B726F6B7C
S113176A6F7720782079207A3A200000000000CD93
S113177A0337056103130433034D033F030D0A00C2
S10F178A6E616E00696E66006F7666008A
S9030000FC
