:1000000072C000009EC000009CC000009AC00000AA
:1000100098C0000096C0000094C0000092C000008C
:1000200090C000008EC000008CC000008AC000009C
:1000300088C0000086C0000084C0000082C00000AC
:1000400080C000007EC000007CC000007AC00000BC
:1000500078C0000076C0000074C00000DBC2000061
:1000600070C00000E5C1000019C200006AC00000B5
:1000700068C0000066C0000064C0000062C00000EC
:1000800060C000005EC000005CC000005AC00000FC
:1000900058C0000056C0000054C0000052C000000C
:1000A00050C000004EC000004CC000004AC000001C
:1000B00048C0000046C0000044C0000042C000002C
:1000C00040C000003EC000003CC000003AC000003C
:1000D00038C0000036C0000034C0000032C000004C
:1000E00030C00000800211241FBECFEFD1E2DEBF7E
:1000F000CDBF00E00CBF12E0A0E0B2E0E4ECF7E01E
:1001000000E00BBF02C007900D92A433B107D9F7EE
:1001100022E0A4E3B2E001C01D92AA3DB207E1F7DC
:1001200010E0C3E7D0E000E005C021970109802F6F
:10013000FE013ED3C237D10780E00807B1F70ED2E7
:100140003FC35ECF26E040E051EE60E070E084E324
:1001500092E00BD160E072E084E392E04BC26BE08E
:1001600072E084E392E046C2FC01918D228D892FDA
:1001700090E0805C9F4F821B91098F7399270895AF
:10018000FC01918D828D981731F0828DE80FF11D61
:10019000858D90E008958FEF9FEF0895FC01918D7C
:1001A000828D981761F0828DDF01A80FB11D5D96D9
:1001B0008C91928D9F5F9F73928F90E008958FEF47
:1001C0009FEF0895FC01538D448D252F30E0842F3F
:1001D00090E0821B930B541710F0CF96089501976F
:1001E000089587E792E0892B39F080E090E0892B31
:1001F00019F07DD1811125C080E090E0892B41F07C
:1002000080E090E0892B21F00E94000081111CC049
:1002100080E090E0892B41F080E090E0892B21F094
:100220000E940000811113C080E090E0892BA1F0B2
:1002300080E090E0892B81F00E94000081110AC0CB
:1002400008950E940000D8CF0E940000E1CF0E94D4
:100250000000EACF0C9400000895FC01848DDF01BA
:10026000A80FB11DA35ABF4F2C91848D90E0019629
:100270008F739927848FA689B7892C93A089B18918
:100280008C9180648C93938D848D981306C0028822
:10029000F389E02D80818F7D80830895EF92FF9216
:1002A0000F931F93CF93DF93EC0181E0888F9B8D99
:1002B0008C8D981305C0E889F989808185FD23C05C
:1002C000F62E0B8D10E00F5F1F4F0F731127E02EDE
:1002D0008C8DE8120BC00FB607FCFACFE889F989BC
:1002E000808185FFF5CFCE01B8DFF2CF8B8DFE0187
:1002F000E80FF11DE35AFF4FF0820B8FEA89FB896B
:100300008081806207C0EE89FF896083E889F9896E
:1003100080818064808381E090E0DF91CF911F91A4
:100320000F91FF90EF900895CF93DF93EC01888DAC
:100330008823C1F0EA89FB89808185FD05C0A889F1
:10034000B9898C9186FD0EC00FB607FCF5CF808170
:1003500085FFF2CFA889B9898C9185FFEDCFCE01B9
:100360007CDFE8CFDF91CF910895CF92DF92EF92BB
:10037000FF921F93CF93DF93EC016A017B01122F51
:10038000E889F98982E080834115514E6105710544
:10039000A9F060E079E08DE390E0A7019601E6D155
:1003A000DA01C9010197A109B109B695A7959795F9
:1003B00087959C01211580E13807A0F0E889F9892B
:1003C000108260E874E88EE190E0A7019601CED13A
:1003D000DA01C9010197A109B109B695A7959795C9
:1003E00087959C01EC85FD853083EE85FF85208314
:1003F000188EEC89FD891083EA89FB8980818061F0
:100400008083EA89FB89808188608083EA89FB890F
:10041000808180688083EA89FB8980818F7D8083E9
:10042000DF91CF911F91FF90EF90DF90CF900895D3
:100430001F920F920FB60F9211240BB60F922F93AB
:100440008F939F93EF93FF93E0914402F0914502C5
:100450008081E0914A02F0914B0282FD12C09081AE
:1004600080914D028F5F8F7320914E02821751F061
:10047000E0914D02F0E0EC5CFD4F958F80934D02D2
:1004800001C08081FF91EF919F918F912F910F90EB
:100490000BBE0F900FBE0F901F9018951F920F92DA
:1004A0000FB60F9211240BB60F922F933F934F93D9
:1004B0005F936F937F938F939F93AF93BF93EF93CC
:1004C000FF9384E392E0C9DEFF91EF91BF91AF917A
:1004D0009F918F917F916F915F914F913F912F915C
:1004E0000F900BBE0F900FBE0F901F90189584E3D6
:1004F00092E03ADE21E0892B09F420E0822F089572
:10050000E4E3F2E01382128288EE93E0A0E0B0E030
:1005100084839583A683B78387E192E09183808368
:1005200085EC90E09587848784EC90E097878687B8
:1005300080EC90E0918B808B81EC90E0938B828BB0
:1005400082EC90E0958B848B86EC90E0978B868B89
:10055000118E128E138E148E08950895A5D0FDDF8E
:10056000F1DDC1EFD0E0FBDD2097E9F33ADEFBCF10
:10057000CF92DF92EF92FF920F931F93CF93DF936F
:100580006C017A018B01C0E0D0E0CE15DF0581F06F
:10059000D8016D918D01D601ED91FC910190F08112
:1005A000E02DC6011995892B11F02196EECF7E0121
:1005B000C701DF91CF911F910F91FF90EF90DF90D6
:1005C000CF9008956115710579F0FB01019000202D
:1005D000E9F73197AF01461B570BDC01ED91FC9118
:1005E0000280F381E02D199480E090E0089565E2A7
:1005F00072E0E8CF0F931F93CF93DF93EC01E2DF1C
:100600008C01CE01F4DF800F911FDF91CF911F91FC
:100610000F9108951F920F920FB60F9211242F93EE
:100620003F938F939F93AF93BF938091D20290910A
:10063000D302A091D402B091D5023091D10223E02F
:10064000230F2D3720F40196A11DB11D05C026E80A
:10065000230F0296A11DB11D2093D1028093D202D7
:100660009093D302A093D402B093D5028091D60286
:100670009091D702A091D802B091D9020196A11D04
:10068000B11D8093D6029093D702A093D802B09365
:10069000D902BF91AF919F918F913F912F910F9070
:1006A0000FBE0F901F901895789484B5826084BD1A
:1006B00084B5816084BD85B5826085BD85B5816066
:1006C00085BDEEE6F0E0808181608083E1E8F0E0C6
:1006D0001082808182608083808181608083E0E8F5
:1006E000F0E0808181608083E1EBF0E080818460D4
:1006F0008083E0EBF0E0808181608083E1E9F0E0DD
:10070000808182608083808181608083E0E9F0E085
:10071000808181608083E1EAF0E080818260808373
:10072000808181608083E0EAF0E080818160808365
:10073000E1E2F1E08081826080838081816080835A
:10074000E0E2F1E0808181608083EAE7F0E080818F
:1007500084608083808182608083808181608083E7
:100760008081806880831092C1000895A1E21A2ED2
:10077000AA1BBB1BFD010DC0AA1FBB1FEE1FFF1F45
:10078000A217B307E407F50720F0A21BB30BE40B95
:10079000F50B661F771F881F991F1A9469F76095DC
:1007A0007095809590959B01AC01BD01CF01089596
:1007B000EE0FFF1F881F8BBF0790F691E02D199455
:0407C000F894FFCFDB
:1007C400436F6E6E65637465642E006C6F6C6F6C42
:1007D4006F6C00000000004E01B802E2009401B406
:1007E40000CE00C0000D0A006E616E00696E6600E6
:0407F4006F766600B6
:00000001FF
