S012000033442D5072696E7465722E737265638A
S113000034C1000062C1000060C100005EC1000094
S11300105CC100005AC1000058C1000056C1000074
S113002054C1000052C1000050C100004EC1000084
S11300304CC100004AC1000048C1000046C1000094
S113004044C1000042C1000040C100003EC10000A4
S11300503CC100003AC1000038C100000C9496086D
S113006034C1000021C7000055C700002EC10000A4
S11300702CC100002AC1000028C1000026C10000D4
S113008024C1000022C1000020C100001EC10000E4
S11300901CC100001AC1000018C1000016C10000F4
S11300A014C1000012C1000010C100000EC1000004
S11300B00CC100000AC1000008C1000006C1000014
S11300C004C1000002C1000000C10000FEC0000025
S11300D0FCC00000FAC00000F8C00000F6C0000038
S11300E0F4C0000073097609650969096F09AD094F
S11300F07A097E09840988098C09920996099A0962
S1130100AD09A009A409A8094E414E494E495459C4
S1130110494E46CDCCCC3D0AD7233C17B7D13877CE
S1130120CC2B329595E6241FB14F0A0000204100E4
S113013000C84200401C4620BCBE4CCA1B0E5AAE2E
S1130140C59D7400000A0B02090C0D0E0807030478
S1130150010000000000000000000000000000009A
S11301600000000000000000000000000000001279
S1130170111000000000000000000000000000005A
S11301800000000000000000000102102020080808
S113019010204010204080020102010804020101E5
S11301A002040810204080804020100804020180CE
S11301B00402018040201008040201080402010125
S11301C00204081020408001020408102040800529
S11301D0050505070508080808020202020A0A08BC
S11301E008040404040101010101010101030303E2
S11301F00303030303040707070C0C0C0C0C0C0C7F
S11302000C0202020206060606060606060B0B0B85
S11302100B0B0B0B0B000020002300260029002CE5
S1130220002F003200000100000301060109010053
S1130230002200250028002B002E0031003400028B
S1130240010000050108010B010000210024002722
S1130250002A002D003000330001010000040107D2
S1130260010A01006F01BC07750111241FBECFEF05
S1130270D1E2DEBFCDBF00E00CBF12E0A0E0B2E0EF
S1130280E4E0FFE100E00BBF02C007900D92AA3248
S1130290B107D9F722E0AAE2B2E001C01D92AD3E57
S11302A0B207E1F711E0C4E3D1E000E006C0219712
S11302B00109802FFE010E94AD0BC233D10780E0FB
S11302C00807A9F787D60C94710F9ACE70D126E04F
S11302D040E051EE60E070E081E492E082C56CE1C0
S11302E072E08BE292E00C94A70A8BE292E00C9409
S11302F0400ACF93DF93CDB7DEB766970FB6F89475
S1130300DEBF0FBECDBF81E492E06AD4892BF9F041
S113031010922A024AE061E472E0CE010196E4D62A
S1130320BE016F5F7F4FCE0107969BD080E1FE0137
S11303303796A1E3B2E001900D928A95E1F7CE01E0
S113034001960E94400A81E392E092D1DCCF81E3DE
S113035092E00DD220E030E0A90160913102709169
S1130360320280913302909134024FD3811128C01C
S113037020E030E0A901609135027091360280914D
S113038037029091380241D381111AC020E030E045
S1130390A9016091390270913A0280913B029091D7
S11303A03C0233D381110CC080912A02811108C010
S11303B066E072E081E492E059D681E080932A02FB
S11303C066960FB6F894DEBF0FBECDBFDF91CF9116
S11303D0089560E082E0C2D760E08FE0BFD760E0BC
S11303E083E1BCD761E082E0F5D761E08FE0F2D72A
S11303F061E083E1EFC7FC012191222331F0DC01AC
S11304002C932032C9F30196F7CFFC011082089592
S1130410FC012191CF01222331F02613F9CF60E0B2
S113042070E00C94CF0D60E070E0CB010895FC0106
S11304308081873659F48181803381F482818033CD
S113044051F0813359F481E090E00895863631F417
S113045083E690E0089580E090E008958FEF9FEFA9
S11304600895AF92BF92CF92DF92EF92FF920F93D3
S11304701F93CF93DF93CDB7DEB78C016B01ADB67D
S1130480BEB680E1F80111928A95E9F786E090E022
S113049054D2BC01990F880B990BEED2F8016487F2
S11304A0758786879787F601448155814F5F5F4F33
S11304B08DB79EB7841B950B0FB6F8949EBF0FBEE5
S11304C08DBFEDB7FEB731967F0120E030E0BF016C
S11304D0C6010E94FA0AC7018EDFC7010E94550FA8
S11304E0C701A5DF8130910541F08336910599F06C
S11304F0892B11F589E090E002C084E090E01DD2E0
S1130500BC01990F880B990BB7D2F80164877587E2
S11305108687978711C066E6C7017ADF7AD2CB0156
S11305200CD2BC01990F880B990BA6D2F8016487F1
S11305307587868797872AC068E7C70169DF69D20C
S1130540072E000C880B990B97D2F80160837183F6
S11305508283938369E7C7015BDF5BD2072E000CBC
S1130560880B990B89D2F8016483758386839783FA
S11305706AE7C7014DDF4DD2072E000C880B990B9B
S11305807BD2F8016087718782879387C8010FB691
S1130590F894BEBE0FBEADBEDF91CF911F910F91F7
S11305A0FF90EF90DF90CF90BF90AF90089511DF50
S11305B061E087E3D3D661E08DE3D0D661E080E3E8
S11305C0CDD661E086E2CAD661E088E3C7D661E0B1
S11305D08EE3C4D661E085E3C1D661E081E3BED693
S11305E061E088E2BBD661E086E3B8D661E08CE3E3
S11305F0B5D661E08EE2B2C6EF92FF920F931F93DD
S1130600CF93DF937C018B01EA0182E011D721E0D3
S1130610892B09F420E0F70120838FE009D721E03A
S1130620892B09F420E0F801208383E101D721E03C
S1130630892B09F420E02883DF91CF911F910F913A
S1130640FF90EF900895882311F061E001C060E00D
S113065087E3C0C6882311F061E001C060E08DE348
S1130660B9C6882311F061E001C060E080E3B2C63E
S1130670CF92DF92EF92FF92CF93DF93EC0120E0D1
S113068030E0A901688179818A819B81A5D21816FD
S11306901CF480E0D8DF17C061E087E39BD6C880F4
S11306A0D980EA80FB8020E030E0A901C701B601CF
S11306B093D2181624F0F7FAF094F7F8F094C8825D
S11306C0D982EA82FB8220E030E0A9016C817D813D
S11306D08E819F8181D218161CF480E0BBDF17C085
S11306E061E08DE377D6CC80DD80EE80FF8020E072
S11306F030E0A901C701B6016FD2181624F0F7FA49
S1130700F094F7F8F094CC82DD82EE82FF8220E050
S113071030E0A901688579858A859B855DD21816A4
S113072044F480E0DF91CF91FF90EF90DF90CF9081
S113073098CF61E080E34ED6C884D984EA84FB84F0
S113074020E030E0A901C701B60146D2181624F012
S1130750F7FAF094F7F8F094C886D986EA86FB860F
S1130760DF91CF91FF90EF90DF90CF9008950F939A
S11307701F93CF93DF9300D0CDB7DEB78C01AE01CA
S11307804F5F5F4FBE016E5F7F4FCE01039634DF34
S113079020E030E0A901F8016081718182819381B8
S11307A01BD218164CF48B81882309F481C087E38B
S11307B03FD6892B09F07CC020E030E0A901F80184
S11307C0648175818681978107D218164CF48A81D9
S11307D0882309F471C08DE32BD6892B09F06CC0F2
S11307E020E030E0A901F801608571858285938558
S11307F0F3D118164CF48981882309F461C080E38D
S113080017D6892B09F05CC0F80164857585868547
S1130810978504D1CB01E0D420E030E0A901F801B0
S11308206081718182819381D7D118164CF48B81B8
S1130830882309F449C087E3FBD5892B09F044C018
S113084020E030E0A901F8016481758186819781F7
S1130850C3D118164CF48A81882309F448C08DE367
S1130860E7D5892B09F043C020E030E0A901F80165
S11308706085718582859385AFD118164CF4898182
S1130880882309F447C080E3D3D5892B09F042C0FB
S1130890F8016485758586859785C0D0CB019CD485
S11308A00F900F900F90DF91CF911F910F910895AA
S11308B060E086E38FD580CF60E08CE38BD590CF6A
S11308C060E08EE287D5A0CF61E086E383D520E0A7
S11308D030E040E85FE3F8016081718182819381B7
S11308E02FD0F8016083718382839383A9CF61E061
S11308F08CE370D520E030E040E85FE3F8016481E8
S11309007581868197811CD0F80164837583868301
S11309109783AACF61E08EE25DD520E030E040E825
S11309205FE3F801608571858285938509D0F801BC
S11309306087718782879387ABCF80E090E00895CA
S11309405058BB27AA270ED00DC1FED030F003D1DA
S113095020F031F49F3F11F41EF4F3C00EF4E0953F
S1130960E7FBE9C0E92F0FD180F3BA1762077307D9
S11309708407950718F071F49EF527C10EF4E095ED
S11309800B2EBA2FA02D0B01B90190010C01CA0145
S1130990A0011124FF27591B99F0593F50F4503EF0
S11309A068F11A16F040A22F232F342F4427585FE2
S11309B0F3CF469537952795A795F0405395C9F7FA
S11309C07EF41F16BA0B620B730B840BBAF09150B2
S11309D0A1F0FF0FBB1F661F771F881FC2F70EC051
S11309E0BA0F621F731F841F48F487957795679524
S11309F0B795F7959E3F08F0B3CF9395880F08F00D
S1130A009927EE0F97958795089571D008F481E0A2
S1130A10089504D06894B111D9C00895BCD088F069
S1130A209F5790F0B92F9927B751A0F0D1F0660FD6
S1130A30771F881F991F1AF0BA95C9F712C0B130F1
S1130A4081F0C3D0B1E00895C0C0672F782F882704
S1130A50B85F39F0B93FCCF3869577956795B39530
S1130A60D9F73EF490958095709561957F4F8F4F9F
S1130A709F4F0895E89409C097FB3EF490958095A4
S1130A80709561957F4F8F4F9F4F9923A9F0F92F50
S1130A9096E9BB279395F695879577956795B795CE
S1130AA0F111F8CFFAF4BB0F11F460FF1BC06F5FB4
S1130AB07F4F8F4F9F4F16C0882311F096E911C0C6
S1130AC0772321F09EE8872F762F05C0662371F0E7
S1130AD096E8862F70E060E02AF09A95660F771FFB
S1130AE0881FDAF7880F9695879597F90895990FD7
S1130AF00008550FAA0BE0E8FEEF16161706E807E4
S1130B00F907C0F012161306E407F50798F0621B04
S1130B10730B840B950B39F40A2661F0232B242BD9
S1130B20252B21F408950A2609F4A140A6958FEFF8
S1130B30811D811D089597F99F6780E870E060E04A
S1130B4008959FEF80EC089500240A941616170662
S1130B5018060906089500240A94121613061406AA
S1130B6005060895092E0394000C11F4882352F00D
S1130B70BB0F40F4BF2B11F460FF04C06F5F7F4FC5
S1130B808F4F9F4F089557FD9058440F551F59F0AC
S1130B905F3F71F04795880F97FB991F61F09F3F66
S1130BA079F087950895121613061406551FF2CF8F
S1130BB04695F1DF08C0161617061806991FF1CFDF
S1130BC086957105610508940895E894BB27662706
S1130BD07727CB0197F908958ADF08F48FEF0895FA
S1130BE0FC01918D228D892F90E0805C9F4F821BA8
S1130BF091098F7399270895FC01918D828D98171F
S1130C0031F0828DE80FF11D858D90E008958FEF0E
S1130C109FEF0895FC01918D828D981761F0828D6C
S1130C20DF01A80FB11D5D968C91928D9F5F9F731C
S1130C30928F90E008958FEF9FEF0895FC01538DFC
S1130C40448D252F30E0842F90E0821B930B5417A2
S1130C5010F0CF9608950197089583EB97E0892BC0
S1130C6039F080E090E0892B19F07DD1811125C005
S1130C7080E090E0892B41F080E090E0892B21F026
S1130C800E94000081111CC080E090E0892B41F09B
S1130C9080E090E0892B21F00E940000811113C0B4
S1130CA080E090E0892BA1F080E090E0892B81F036
S1130CB00E94000081110AC008950E940000D8CF4C
S1130CC00E940000E1CF0E940000EACF0C940000D3
S1130CD00895FC01848DDF01A80FB11DA35ABF4FF5
S1130CE02C91848D90E001968F739927848FA68927
S1130CF0B7892C93A089B1898C9180648C93938D4E
S1130D00848D981306C00288F389E02D80818F7D3D
S1130D1080830895EF92FF920F931F93CF93DF93F5
S1130D20EC0181E0888F9B8D8C8D981305C0E88938
S1130D30F989808185FD23C0F62E0B8D10E00F5FAD
S1130D401F4F0F731127E02E8C8DE8120BC00FB6C6
S1130D5007FCFACFE889F989808185FFF5CFCE01B8
S1130D60B8DFF2CF8B8DFE01E80FF11DE35AFF4F80
S1130D70F0820B8FEA89FB898081806207C0EE894B
S1130D80FF896083E889F98980818064808381E0B8
S1130D9090E0DF91CF911F910F91FF90EF90089514
S1130DA0CF93DF93EC01888D8823C1F0EA89FB8916
S1130DB0808185FD05C0A889B9898C9186FD0EC006
S1130DC00FB607FCF5CF808185FFF2CFA889B989DA
S1130DD08C9185FFEDCFCE017CDFE8CFDF91CF9101
S1130DE00895CF92DF92EF92FF921F93CF93DF93F8
S1130DF0EC016A017B01122FE889F98982E0808382
S1130E004115514E61057105A9F060E079E08DE36B
S1130E1090E0A70196017FD4DA01C9010197A109E5
S1130E20B109B695A795979587959C01211580E101
S1130E303807A0F0E889F989108260E874E88EE147
S1130E4090E0A701960167D4DA01C9010197A109CD
S1130E50B109B695A795979587959C01EC85FD8575
S1130E603083EE85FF852083188EEC89FD891083FD
S1130E70EA89FB89808180618083EA89FB8980819A
S1130E8088608083EA89FB89808180688083EA891D
S1130E90FB8980818F7D8083DF91CF911F91FF90AB
S1130EA0EF90DF90CF9008951F920F920FB60F929C
S1130EB011240BB60F922F938F939F93EF93FF936D
S1130EC0E0915102F09152028081E0915702F09139
S1130ED0580282FD12C0908180915A028F5F8F73F5
S1130EE020915B02821751F0E0915A02F0E0EF5B2F
S1130EF0FD4F958F80935A0201C08081FF91EF913D
S1130F009F918F912F910F900BBE0F900FBE0F905A
S1130F101F9018951F920F920FB60F9211240BB6C3
S1130F200F922F933F934F935F936F937F938F937E
S1130F309F93AF93BF93EF93FF9381E492E0C9DE55
S1130F40FF91EF91BF91AF919F918F917F916F919D
S1130F505F914F913F912F910F900BBE0F900FBE59
S1130F600F901F90189581E492E03ADE21E0892BDE
S1130F7009F420E0822F0895E1E4F2E01382128262
S1130F8088EE93E0A0E0B0E084839583A683B783E2
S1130F908CE092E09183808385EC90E09587848750
S1130FA084EC90E09787868780EC90E0918B808B2F
S1130FB081EC90E0938B828B82EC90E0958B848B18
S1130FC086EC90E0978B868B118E128E138E148E86
S1130FD0089508950CD1FDDF79D9CDE2D6E089D901
S1130FE02097E9F33ADEFBCFCF92DF92EF92FF92A4
S1130FF00F931F93CF93DF936C017A018B01C0E0B1
S1131000D0E0CE15DF0581F0D8016D918D01D601B8
S1131010ED91FC910190F081E02DC6011995892B89
S113102011F02196EECF7E01C701DF91CF911F9180
S11310300F91FF90EF90DF90CF90089561157105A7
S113104079F0FB0101900020E9F73197AF01461BCD
S1131050570BDC01ED91FC910280F381E02D199492
S113106080E090E008956AE172E0E8CF0F931F9367
S1131070CF93DF93EC01E2DF8C01CE01F4DF800F2C
S1131080911FDF91CF911F910F9108950F931F939B
S1131090CF93DF93EC0194D0688779878A879B8705
S11310A0E881F9810284F385E02DCE01199597FF3B
S11310B016C086D0088519852A853B85DC01CB01BD
S11310C0801B910BA20BB30B0C811D812E813F81E0
S11310D080179107A207B30718F38FEF9FEFDF91F3
S11310E0CF911F910F910895EF92FF920F931F9349
S11310F0CF93DF93EC017B01042F6CE172E027D2E4
S1131100C701C4DF10E097FD09C08017910731F0D3
S1131110682FCE015CD2C701B9DFF5CFCE01DF91D4
S1131120CF911F910F91FF90EF9008951F920F920E
S11311300FB60F9211242F933F938F939F93AF93E6
S1131140BF938091DF029091E002A091E102B091FF
S1131150E2023091DE0223E0230F2D3720F40196C2
S1131160A11DB11D05C026E8230F0296A11DB11DC6
S11311702093DE028093DF029093E002A093E102C9
S1131180B093E2028091E3029091E402A091E5021F
S1131190B091E6020196A11DB11D8093E3029093E4
S11311A0E402A093E502B093E602BF91AF919F9150
S11311B08F913F912F910F900FBE0F901F90189514
S11311C02FB7F8946091DF027091E0028091E10200
S11311D09091E2022FBF08958230910538F0880F74
S11311E0991F880F991F05970197F1F7089578942F
S11311F084B5826084BD84B5816084BD85B5826018
S113120085BD85B5816085BDEEE6F0E080818160B5
S11312108083E1E8F0E010828081826080838081B5
S113122081608083E0E8F0E0808181608083E1EB8D
S1131230F0E0808184608083E0EBF0E08081816075
S11312408083E1E9F0E08081826080838081816035
S11312508083E0E9F0E0808181608083E1EAF0E06E
S1131260808182608083808181608083E0EAF0E015
S1131270808181608083E1E2F1E08081826080830B
S1131280808181608083E0E2F1E0808181608083FD
S1131290EAE7F0E0808184608083808182608083DB
S11312A08081816080838081806880831092C10006
S11312B0089590E0FC013197E231F10508F04DC04A
S11312C08827EE58FF4F8F4F48C2809180008F7758
S11312D003C0809180008F7D809380000895809169
S11312E08000877FF9CF84B58F7702C084B58F7D66
S11312F084BD08958091B0008F7703C08091B000C1
S11313008F7D8093B0000895809190008F7707C0FF
S1131310809190008F7D03C080919000877F80939F
S1131320900008958091A0008F7707C08091A0005D
S11313308F7D03C08091A000877F8093A0000895D3
S1131340809120018F7707C0809120018F7D03C099
S113135080912001877F809320010895CF93DF93AC
S113136090E0FC01E757FE4F2491FC01E153FE4F4E
S11313708491882361F190E0880F991FFC01E75B59
S1131380FD4FC591D491FC01E15DFD4FA591B49150
S1131390611109C09FB7F8948881209582238883BE
S11313A0EC912E230BC0623061F49FB7F8948881CE
S11313B0322F309583238883EC912E2B2C939FBF5F
S11313C006C08FB7F894E8812E2B28838FBFDF9156
S11313D0CF9108951F93CF93DF93282F30E0F90125
S11313E0ED5BFE4F8491F901E757FE4FD491F9016B
S11313F0E153FE4FC491CC23B9F0162F811159DF6C
S1131400EC2FF0E0EE0FFF1FE15DFD4FA591B491CD
S11314109FB7F894111104C08C91D095D82302C0C1
S1131420EC91DE2BDC939FBFDF91CF911F91089548
S1131430CF93DF93282F30E0F901ED5BFE4F8491C9
S1131440F901E757FE4FD491F901E153FE4FC491DE
S1131450CC2389F081112DDFEC2FF0E0EE0FFF1F7C
S1131460EB5EFD4FA591B491EC91ED2381E090E00A
S113147021F480E002C080E090E0DF91CF910895F4
S1131480FC018081918122C2CF93DF93EC0188819A
S11314909981009709F01AD2198218821D821C8240
S11314A01B821A82DF91CF9108950F931F93CF93DC
S11314B0DF93EC018B016F5F7F4F888199818FD21D
S11314C0009731F0998388831B830A8381E001C0EC
S11314D080E0DF91CF911F910F910895CF93DF9317
S11314E0EC0188819981892B29F08A819B81861757
S11314F0970758F4CE01D9DF882341F08C819D8170
S1131500892B19F4E881F981108281E0DF91CF9170
S11315100895EF92FF920F931F93CF93DF93EC0103
S11315207B018A01BA01DADF811103C0CE01ACDF8D
S113153006C01D830C83B70188819981AFD4CE0185
S1131540DF91CF911F910F91FF90EF900895FC01CF
S11315501182108213821282158214826115710520
S113156049F0FB0101900020E9F73197AF01461BD8
S1131570570BCFCF0895EF92FF920F931F93CF9302
S1131580DF936115710511F480E01AC0411551050E
S1131590B1F07B01EC018C819D818A01080F191F38
S11315A0B801CE019BDF882379F3288139818C81AE
S11315B09D81B701820F931F71D41D830C8381E039
S11315C0DF91CF911F910F91FF90EF900895CF93EA
S11315D0DF931F921F92CDB7DEB769831A8241E071
S11315E050E0BE016F5F7F4FC6DF0F900F90DF9119
S11315F0CF9108950F931F93CF93DF934115510516
S113160011F161157105F9F0DC011496ED91FC916D
S113161015972E173F0718F0FB01108214C0E21B28
S1131620F30BEA012197EC17FD0708F4EF018B0196
S1131630FC0160817181620F731FAE01C8013FD448
S1131640C00FD11F1882DF91CF911F910F91089580
S11316500BD088CA79DA28F07EDA18F0952309F0DD
S11316606ACA6FCA1124B2CA8EDAA0F3959FD1F365
S1131670950F50E0551F629FF001729FBB27F00D3C
S1131680B11D639FAA27F00DB11DAA1F649F662791
S1131690B00DA11D661F829F2227B00DA11D621FE0
S11316A0739FB00DA11D621F839FA00D611D221F9A
S11316B0749F3327A00D611D231F849F600D211D7E
S11316C0822F762F6A2F11249F5750408AF0E1F021
S11316D088234AF0EE0FFF1FBB1F661F771F881F6A
S11316E091505040A9F79E3F510570F024CA6ECA2C
S11316F05F3FECF3983EDCF3869577956795B79555
S1131700F795E7959F5FC1F7FE2B880F911D96957E
S1131710879597F90895A1E21A2EAA1BBB1BFD0118
S11317200DC0AA1FBB1FEE1FFF1FA217B307E407BC
S1131730F50720F0A21BB30BE40BF50B661F771F14
S1131740881F991F1A9469F76095709580959095F4
S11317509B01AC01BD01CF010895EE0FFF1F881F4F
S11317608BBF0790F691E02D199409D0A59F900D99
S1131770B49F900DA49F800D911D11240895A29FE4
S1131780B001B39FC001A39F700D811D1124911D51
S1131790B29F700D811D1124911D08950F931F9305
S11317A0CF93DF938230910510F482E090E0E091D2
S11317B0E902F091EA0220E030E0A0E0B0E03097E6
S11317C019F1408151810281138148175907C8F0EA
S11317D08417950769F4109731F012960C931297B9
S11317E013961C9327C00093E9021093EA0222C0C7
S11317F02115310519F04217530718F49A01BD0158
S1131800EF01DF01F801DBCF21153105F9F0281BC9
S1131810390B2430310580F48A819B81611571056F
S113182021F0FB019383828304C09093EA028093A6
S1131830E902FE01329644C0FE01E20FF31F8193D8
S1131840919322503109398328833AC02091E702C9
S11318503091E802232B41F42091020230910302DB
S11318603093E8022093E7022091000230910102B4
S11318702115310541F42DB73EB740910402509132
S11318800502241B350BE091E702F091E802E21710
S1131890F307A0F42E1B3F0B2817390778F0AC018F
S11318A04E5F5F4F2417350748F04E0F5F1F50936C
S11318B0E8024093E7028193919302C0E0E0F0E0F4
S11318C0CF01DF91CF911F910F910895CF93DF93B3
S11318D0009709F481C0FC01329713821282A0910F
S11318E0E902B091EA02109781F420813181820FDC
S11318F0931F2091E7023091E8022817390751F528
S1131900F093E802E093E70267C0ED0120E030E0E5
S1131910CE17DF0740F44A815B819E0141155105D2
S1131920F1F0EA01F5CFD383C28340815181840F62
S1131930951FC817D90759F488819981840F951F79
S11319400296918380838A819B819383828321156C
S1131950310529F4F093EA02E093E9023DC0E9017C
S1131960FB83EA8349915991C40FD51FEC17FD07F6
S113197061F480819181840F951F0296E901998316
S11319808883828193819B838A83E0E0F0E01296CE
S11319908D919C911397009719F0FD01DC01F7CF0D
S11319A08D919C9111979D012E5F3F4F820F931F44
S11319B02091E7023091E8022817390769F430973B
S11319C029F41092EA021092E90202C013821282F0
S11319D0B093E802A093E702DF91CF9108956F924C
S11319E07F928F929F92AF92BF92CF92DF92EF92AB
S11319F0FF920F931F93CF93DF93009781F4CB0152
S1131A00DF91CF911F910F91FF90EF90DF90CF90D6
S1131A10BF90AF909F908F907F906F90BFCEFC014E
S1131A20E60FF71F9C0122503109E217F30708F46F
S1131A30A5C0EC01D9010D911C9111970617170748
S1131A40A8F00530110508F497C0C801049786175B
S1131A50970708F491C002501109061B170B019354
S1131A6011936D937C93CF0131DF86C05B01A01A83
S1131A70B10A4C01800E911EA091E902B091EA02D4
S1131A80612C712CE12CF12C109709F446C08D9136
S1131A909C911197A815B905B1F56C0142E0C40EEB
S1131AA0D11CCA14DB0478F14C018A189B08640128
S1131AB042E0C40ED11C1296BC9012971396AC91BE
S1131AC0B5E0CB16D10440F0B282A3839182808228
S1131AD0D9016D937C9309C00E5F1F4F800F911F36
S1131AE0F90191838083EB2DFA2FE114F10431F095
S1131AF0D7011396FC93EE9312973EC0F093EA023B
S1131B00E093E90239C06816790608F43C017D01C6
S1131B1012960D90BC91A02DB7CF8091E7029091C1
S1131B20E80288169906E1F466167706C8F48091EF
S1131B30000290910102009741F48DB79EB7409145
S1131B40040250910502841B950BE817F907B0F4C1
S1131B50F093E802E093E702F901718360830CC01B
S1131B60CB011CDE7C01009749F0A801BE018DD198
S1131B70CE01ACDEC70104C0CE0102C080E090E01B
S1131B80DF91CF911F910F91FF90EF90DF90CF9055
S1131B90BF90AF909F908F907F906F9008958F9299
S1131BA09F92AF92BF92CF92DF92EF92FF920F93E8
S1131BB01F93CF93DF93EC016B016115710519F04D
S1131BC0FB01918380837E01FFEFEF1AFF0A0881F6
S1131BD0802F90E03AD1892B11F0E701F4CF0D3238
S1131BE039F47E0182E0E80EF11C098111E008C09D
S1131BF00B3229F47E0192E0E90EF11C098110E018
S1131C00E701219743E050E060E171E0CE0125D186
S1131C10892BB9F4239645E050E06BE071E0CE01E6
S1131C201CD1892B09F42596C114D10419F0F601AD
S1131C30D183C0831111F3C060E070E080E89FE7B6
S1131C40F7C043E050E068E071E0CE0106D1892B93
S1131C5059F4C114D10409F4E7C0F2E0EF0EF11C09
S1131C60F601F182E082E0C020E030E0A901C0E0AA
S1131C70D0E0F70160EDA62EA00E89E08A1528F1C8
S1131C80912F9260B92E812F887012FF04C08111A8
S1131C9023C0219621C081112197A5E0B0E065DD24
S1131CA0DC01CB01880F991FAA1FBB1F9C01AD014A
S1131CB02A0D311D411D511D283989E9380748076E
S1131CC089E1580748F0166006C09EEFA9120AC0C1
S1131CD013FD40C01860B12E8FEFE81AF80A008196
S1131CE01B2DC7CF802F8F7D8534A1F580818D3248
S1131CF011F4106106C08B3221F0319661E070E07E
S1131D0004C08181329662E070E080538A3018F01A
S1131D10E61BF70B1FC060E070E060389CE07907B9
S1131D205CF4DB01AA0FBB1FAA0FBB1F6A0F7B1F4A
S1131D30660F771F680F711D3196DF0111978C9123
S1131D4080538A3050F314FF03C071956195710973
S1131D50C60FD71F11FF08C0C114D10429F0CF0149
S1131D600197F60191838083CA01B9010E943A0563
S1131D70212F2370233019F04B015C0106C04B0165
S1131D805C01B7FAB094B7F8B09420E030E0A90150
S1131D90C501B4010E940505882309F43DC0D7FF9D
S1131DA006C0D195C195D10907E211E002C00FE345
S1131DB011E06801F8E1CF1AD10890E2E92EF12C84
S1131DC0CE15DF056CF0F8012591359145915491BC
S1131DD0C501B4013DDC4B015C01CE19DF09F0CF34
S1131DE004501109F594E7940C151D0549F78A2D43
S1131DF0880F8B2D881F8F3F49F020E030E0A90128
S1131E00C501B4010E940505811106C082E290E07B
S1131E109093EC028093EB02C501B40109C060E029
S1131E2070E080E89FEF04C060E070E080EC9FE722
S1131E30DF91CF911F910F91FF90EF90DF90CF90A2
S1131E40BF90AF909F908F900895911147C08032BA
S1131E5019F089508550D0F70895FB01DC014150F9
S1131E60504088F08D9181341CF08B350CF4805EE9
S1131E70659161341CF06B350CF4605E861B611156
S1131E8071F3990B0895881BFCCFFB01DC0102C0A0
S1131E9001900D9241505040D8F70895FB01DC01A8
S1131EA001900D920020E1F70895DC016C916154DA
S1131EB06A3108F060526F596D93C1F70895FB01C0
S1131EC0DC014150504048F001900D920020C9F7C8
S1131ED001C01D9241505040E0F70895992788278A
S1131EE0089511E0C4E3D1E000E005C0802FFE01B5
S1131EF034DC2196011DC533D10780E00807B1F712
S1071F00F894FFCF7F
S1131F040000ED0220007100000000008A06F407BE
S1131F141E06D006F0050A06FC050D0A006E616E65
S10D1F2400696E66006F7666000027
S9030000FC
