S012000033442D5072696E7465722E737265638A
S113000032C1000060C100005EC100005CC100009C
S11300105AC1000058C1000056C1000054C100007C
S113002052C1000050C100004EC100004CC100008C
S11300304AC1000048C1000046C1000044C100009C
S113004042C1000040C100003EC100003CC10000AC
S11300503AC1000038C1000036C100000C944409C4
S113006032C10000A4C60000D8C600002CC10000A4
S11300702AC1000028C1000026C1000024C10000DC
S113008022C1000020C100001EC100001CC10000EC
S11300901AC1000018C1000016C1000014C10000FC
S11300A012C1000010C100000EC100000CC100000C
S11300B00AC1000008C1000006C1000004C100001C
S11300C002C1000000C10000FEC00000FCC000002E
S11300D0FAC00000F8C00000F6C00000F4C0000040
S11300E0F2C00000210A240A130A170A1D0A5B0A37
S11300F0280A2C0A320A360A3A0A400A440A480AEA
S11301005B0A4E0A520A560A4E414E494E49545908
S1130110494E46CDCCCC3D0AD7233C17B7D13877CE
S1130120CC2B329595E6241FB14F0A0000204100E4
S113013000C84200401C4620BCBE4CCA1B0E5AAE2E
S1130140C59D7400000A0B02090C0D0E0807030478
S1130150010000000000000000000000000000009A
S11301600000000000000000000000000000001279
S1130170111000000000000000000000000000005A
S11301800000000000000000000102102020080808
S113019010204010204080020102010804020101E5
S11301A002040810204080804020100804020180CE
S11301B00402018040201008040201080402010125
S11301C00204081020408001020408102040800529
S11301D0050505070508080808020202020A0A08BC
S11301E008040404040101010101010101030303E2
S11301F00303030303040707070C0C0C0C0C0C0C7F
S11302000C0202020206060606060606060B0B0B85
S11302100B0B0B0B0B000020002300260029002CE5
S1130220002F003200000100000301060109010053
S1130230002200250028002B002E0031003400028B
S1130240010000050108010B010000210024002722
S1130250002A002D003000330001010000040107D2
S1130260010A01003F0711241FBECFEFD1E2DEBF18
S1130270CDBF00E00CBF12E0A0E0B2E0EEE1F1E29D
S113028000E00BBF02C007900D92A233B107D9F76B
S113029022E0A2E3B2E001C01D92AA3EB207E1F758
S11302A011E0C3E3D1E000E006C021970109802FEB
S11302B0FE010E94CB0CC233D10780E00807A9F7E6
S11302C00CD60C948D109CCE03D126E040E051EE68
S11302D060E070E08EE392E007D566E072E08EE3C2
S11302E092E04EC6CF93DF93CDB7DEB762970FB6D9
S11302F0F894DEBF0FBECDBF8EE392E0F4D3892B1A
S113030009F443C06EE372E0CE010196A6D7BE01A4
S11303106F5F7F4FCE01079678D08CE0FE01379651
S1130320A2E3B2E001900D928A95E1F7CE01019625
S11303300E94EE0A409132025091330260913402DD
S11303407091350222E030E08EE392E048D740918C
S1130350360250913702609138027091390222E0DE
S113036030E08EE392E03BD740913A0250913B0259
S113037060913C0270913D0222E030E08EE392E015
S11303802ED782E392E008D1B7CF82E392E083D103
S113039062960FB6F894DEBF0FBECDBFDF91CF914A
S11303A0089560E082E00E945C0A60E08FE00E94B1
S11303B05C0A60E083E10E945C0A61E082E00E94E2
S11303C0980A61E08FE00E94980A61E083E10C944E
S11303D0980AFC012191222331F0DC012C93203274
S11303E0C9F30196F7CFFC0110820895FC01219115
S11303F0CF01222331F02613F9CF60E070E00C9492
S1130400ED0E60E070E0CB010895CF92DF92EF92A1
S1130410FF920F931F93CF93DF93CDB7DEB77C0189
S1130420CB01CDB6DEB6FB01448155814F5F5F4FF2
S11304302DB73EB7241B350B0FB6F8943EBF0FBE45
S11304402DBF0DB71EB70F5F1F4F20E030E0B8017E
S11304500E94A80BC801BDDFC8010E94711068E7A3
S1130460C801C4DF59D2072E000C880B990B87D220
S1130470F701608371838283938369E7C801B6DFE0
S11304804BD2072E000C880B990B79D2F7016483A9
S11304907583868397836AE7C801A8DF3DD2072E58
S11304A0000C880B990B6BD2F701608771878287E8
S11304B09387C7010FB6F894DEBE0FBECDBEDF91A1
S11304C0CF911F910F91FF90EF90DF90CF900895FF
S11304D068DF61E087E3F0D761E08DE3EDD761E0A9
S11304E080E3EAD761E086E2E7D761E088E3E4D716
S11304F061E08EE3E1D761E085E3DED761E081E38B
S1130500DBD761E088E2D8D761E086E3D5D761E044
S11305108CE3D2D761E08EE2CFC7EF92FF920F93C4
S11305201F93CF93DF937C018B01EA0182E00E9449
S1130530C60A21E0892B09F420E0F70120838FE02B
S11305400E94C60A21E0892B09F420E0F8012083E7
S113055083E10E94C60A21E0892B09F420E0288364
S1130560DF91CF911F910F91FF90EF900895882311
S113057011F061E001C060E087E3DAC7882311F07D
S113058061E001C060E08DE3D3C7882311F061E02E
S113059001C060E080E3CCC7CF92DF92EF92FF927C
S11305A0CF93DF93EC0120E030E0A90168817981E9
S11305B08A819B8170D218161CF480E0D8DF17C0A2
S11305C061E087E3B5D7C880D980EA80FB8020E06A
S11305D030E0A901C701B6015ED2181624F0F7FA7B
S11305E0F094F7F8F094C882D982EA82FB8220E082
S11305F030E0A9016C817D818E819F814CD21816D7
S11306001CF480E0BBDF17C061E08DE391D7CC80A0
S1130610DD80EE80FF8020E030E0A901C701B60153
S11306203AD2181624F0F7FAF094F7F8F094CC8242
S1130630DD82EE82FF8220E030E0A90168857985C1
S11306408A859B8528D2181644F480E0DF91CF91E7
S1130650FF90EF90DF90CF9098CF61E080E368D770
S1130660C884D984EA84FB8420E030E0A901C7016E
S1130670B60111D2181624F0F7FAF094F7F8F094B2
S1130680C886D986EA86FB86DF91CF91FF90EF90EA
S1130690DF90CF9008950F931F93CF93DF9300D0F3
S11306A0CDB7DEB78C01AE014F5F5F4FBE016E5F09
S11306B07F4FCE01039631DF20E030E0A901F8013D
S11306C06081718182819381E6D118164CF48B810B
S11306D0882309F477C087E359D7892B09F072C0BE
S11306E020E030E0A901F801648175818681978159
S11306F0D2D118164CF48A81882309F467C08DE39B
S113070045D7892B09F062C020E030E0A901F80147
S11307106085718582859385BED118164CF48981D4
S1130720882309F457C080E331D7892B09F052C0DC
S113073084EF91E0FFD520E030E0A901F801608169
S1130740718182819381A7D118164CF48B818823FF
S113075009F444C087E31AD7892B09F03FC020E08D
S113076030E0A901F801648175818681978193D174
S113077018164CF48A81882309F443C08DE306D704
S1130780892B09F03EC020E030E0A901F801608522
S11307907185828593857FD118164CF489818823CD
S11307A009F442C080E3F2D6892B09F03DC084EFFE
S11307B091E0C0D50F900F900F90DF91CF911F91D2
S11307C00F91089560E086E3B3D68ACF60E08CE3AE
S11307D0AFD69ACF60E08EE2ABD6AACF61E086E3D3
S11307E0A7D620E030E040E85FE3F8016081718142
S11307F0828193812CD0F8016083718382839383F7
S1130800AECF61E08CE394D620E030E040E85FE3D3
S1130810F801648175818681978119D0F801648318
S1130820758386839783AFCF61E08EE281D620E023
S113083030E040E85FE3F801608571858285938547
S113084006D0F8016087718782879387B0CF5058AC
S1130850BB27AA270ED0E5C0D6D030F0DBD020F0DD
S113086031F49F3F11F41EF4CBC00EF4E095E7FB86
S1130870C1C0E92FE7D080F3BA1762077307840772
S1130880950718F071F49EF5FFC00EF4E0950B2E59
S1130890BA2FA02D0B01B90190010C01CA01A001CE
S11308A01124FF27591B99F0593F50F4503E68F129
S11308B01A16F040A22F232F342F4427585FF3CF6A
S11308C0469537952795A795F0405395C9F77EF43B
S11308D01F16BA0B620B730B840BBAF09150A1F084
S11308E0FF0FBB1F661F771F881FC2F70EC0BA0F0A
S11308F0621F731F841F48F4879577956795B79592
S1130900F7959E3F08F0B3CF9395880F08F0992789
S1130910EE0F97958795089504D06894B111B5C0EA
S1130920089598D088F09F5790F0B92F9927B75120
S1130930A0F0D1F0660F771F881F991F1AF0BA959F
S1130940C9F712C0B13081F09FD0B1E008959CC0C6
S1130950672F782F8827B85F39F0B93FCCF3869595
S113096077956795B395D9F73EF4909580957095F2
S113097061957F4F8F4F9F4F0895E89409C097FB6F
S11309803EF490958095709561957F4F8F4F9F4F62
S11309909923A9F0F92F96E9BB279395F6958795A6
S11309A077956795B795F111F8CFFAF4BB0F11F469
S11309B060FF1BC06F5F7F4F8F4F9F4F16C0882310
S11309C011F096E911C0772321F09EE8872F762F46
S11309D005C0662371F096E8862F70E060E02AF087
S11309E09A95660F771F881FDAF7880F9695879573
S11309F097F9089597F99F6780E870E060E008959B
S1130A009FEF80EC089500240A9416161706180622
S1130A100906089500240A941216130614060506FE
S1130A200895092E0394000C11F4882352F0BB0F8F
S1130A3040F4BF2B11F460FF04C06F5F7F4F8F4FF2
S1130A409F4F089557FD9058440F551F59F05F3F2D
S1130A5071F04795880F97FB991F61F09F3F79F0DC
S1130A6087950895121613061406551FF2CF46955E
S1130A70F1DF08C0161617061806991FF1CF8695E0
S1130A807105610508940895E894BB2766277727C4
S1130A90CB0197F9089503D008F48FEF0895990FC7
S1130AA00008550FAA0BE0E8FEEF16161706E80734
S1130AB0F907C0F012161306E407F50798F0621B55
S1130AC0730B840B950B39F40A2661F0232B242B2A
S1130AD0252B21F408950A2609F4A140A6958FEF49
S1130AE0811D811D0895FC01918D228D892F90E037
S1130AF0805C9F4F821B91098F7399270895FC0195
S1130B00918D828D981731F0828DE80FF11D858DBE
S1130B1090E008958FEF9FEF0895FC01918D828DF1
S1130B20981761F0828DDF01A80FB11D5D968C913D
S1130B30928D9F5F9F73928F90E008958FEF9FEF48
S1130B400895FC01538D448D252F30E0842F90E0CF
S1130B50821B930B541710F0CF96089501970895B4
S1130B6086E397E0892B39F080E090E0892B19F037
S1130B707DD1811125C080E090E0892B41F080E097
S1130B8090E0892B21F00E94000081111CC080E0BC
S1130B9090E0892B41F080E090E0892B21F00E94C5
S1130BA00000811113C080E090E0892BA1F080E067
S1130BB090E0892B81F00E94000081110AC0089501
S1130BC00E940000D8CF0E940000E1CF0E940000E4
S1130BD0EACF0C9400000895FC01848DDF01A80F76
S1130BE0B11DA35ABF4F2C91848D90E001968F7351
S1130BF09927848FA689B7892C93A089B1898C9170
S1130C0080648C93938D848D981306C00288F38935
S1130C10E02D80818F7D80830895EF92FF920F9362
S1130C201F93CF93DF93EC0181E0888F9B8D8C8D94
S1130C30981305C0E889F989808185FD23C0F62EC3
S1130C400B8D10E00F5F1F4F0F731127E02E8C8D5B
S1130C50E8120BC00FB607FCFACFE889F989808146
S1130C6085FFF5CFCE01B8DFF2CF8B8DFE01E80F03
S1130C70F11DE35AFF4FF0820B8FEA89FB898081D3
S1130C80806207C0EE89FF896083E889F9898081E1
S1130C908064808381E090E0DF91CF911F910F9178
S1130CA0FF90EF900895CF93DF93EC01888D882314
S1130CB0C1F0EA89FB89808185FD05C0A889B989CD
S1130CC08C9186FD0EC00FB607FCF5CF808185FFA1
S1130CD0F2CFA889B9898C9185FFEDCFCE017CDF55
S1130CE0E8CFDF91CF910895CF92DF92EF92FF92F8
S1130CF01F93CF93DF93EC016A017B01122FE889E4
S1130D00F98982E080834115514E61057105A9F08E
S1130D1060E079E08DE390E0A70196011AD6DA014C
S1130D20C9010197A109B109B695A795979587952A
S1130D309C01211580E13807A0F0E889F989108227
S1130D4060E874E88EE190E0A701960102D6DA012A
S1130D50C9010197A109B109B695A79597958795FA
S1130D609C01EC85FD853083EE85FF852083188EFC
S1130D70EC89FD891083EA89FB8980818061808305
S1130D80EA89FB89808188608083EA89FB89808184
S1130D9080688083EA89FB8980818F7D8083DF91ED
S1130DA0CF911F91FF90EF90DF90CF9008951F9205
S1130DB00F920FB60F9211240BB60F922F938F93AD
S1130DC09F93EF93FF93E0914E02F0914F02808145
S1130DD0E0915402F091550282FD12C090818091FD
S1130DE057028F5F8F7320915802821751F0E09160
S1130DF05702F0E0E25CFD4F958F8093570201C0EB
S1130E008081FF91EF919F918F912F910F900BBE55
S1130E100F900FBE0F901F9018951F920F920FB650
S1130E200F9211240BB60F922F933F934F935F931E
S1130E306F937F938F939F93AF93BF93EF93FF939E
S1130E408EE392E0C9DEFF91EF91BF91AF919F9144
S1130E508F917F916F915F914F913F912F910F905F
S1130E600BBE0F900FBE0F901F9018958EE392E06B
S1130E703ADE21E0892B09F420E0822F0895EEE385
S1130E80F2E01382128288EE93E0A0E0B0E0848363
S1130E909583A683B78385E192E09183808385EC73
S1130EA090E09587848784EC90E09787868780EC30
S1130EB090E0918B808B81EC90E0938B828B82EC21
S1130EC090E0958B848B86EC90E0978B868B118ECB
S1130ED0128E138E148E0895089537D2FDDFF4D93F
S1130EE0C0EBD5E0FFD92097E9F33ADEFBCFCF92F0
S1130EF0DF92EF92FF920F931F93CF93DF936C01D6
S1130F007A018B01C0E0D0E0CE15DF0581F0D80175
S1130F106D918D01D601ED91FC910190F081E02D50
S1130F20C6011995892B11F02196EECF7E01C701D8
S1130F30DF91CF911F910F91FF90EF90DF90CF90B1
S1130F4008956115710579F0FB0101900020E9F71E
S1130F503197AF01461B570BDC01ED91FC910280E8
S1130F60F381E02D199480E090E00895DC01ED9187
S1130F70FC910190F081E02D199463E272E0E1CFDD
S1130F800F931F93CF93DF93EC01DBDF8C01CE0132
S1130F90F4DF800F911FDF91CF911F910F9108957E
S1130FA08F929F92AF92BF92EF92FF920F931F93F3
S1130FB0CF93DF93CDB7DEB7A1970FB6F894DEBF1A
S1130FC00FBECDBF7C01FA01CB0119A2223008F477
S1130FD02AE08E010F5D1F4F822E912CA12CB12C83
S1130FE0BF01A5019401B5D4F901CA010150110949
S1130FF06A3010F4605D01C0695CD8016C93232BE6
S1131000242B252B69F7B801C7019BDFA1960FB6E6
S1131010F894DEBF0FBECDBFDF91CF911F910F912A
S1131020FF90EF90BF90AF909F908F9008952115FF
S1131030310541F4DC01ED91FC910190F081E02D4A
S1131040642F1994ADCF9A01AB0160E070E0EFCF4B
S11310507F928F929F92AF92BF92CF92DF92EF9244
S1131060FF920F931F93CF93DF938C016A017B014F
S1131070722E9A01AB01C701B60167D4882319F017
S113108066E272E024C046015701E894B7F82FEFF6
S11310903FEF4FE75FE7C501B40157D481110CC09E
S11310A02FEF3FEF4FE75FE7C501B4017FD3181679
S11310B01CF46AE272E00BC02FEF3FEF4FE75FE4EE
S11310C0C701B601E8DC18168CF46EE272E0C801C0
S11310D0DF91CF911F910F91FF90EF90DF90CF9010
S11310E0BF90AF909F908F907F902BCF2FEF3FEFCB
S11310F04FE75FECC701B60159D387FDE6CF20E087
S113110030E0A901C701B60151D387FF09C06DE2E0
S1131110C8012CDFEC01F7FAF094F7F8F09402C060
S1131120C0E0D0E0B12C60E070E080E09FE37B148D
S113113039F020E030E040E251E43CD3B394F7CFFF
S1131140A701960185DB6B017C01EBDB4B015C01A4
S11311502AE0AB01BC01C80123DFC80FD91F7720E7
S113116079F1C501B40109DC9B01AC01C701B601E9
S11311706EDB6B017C016EE2C801F8DEC80FD91F7B
S113118020E030E040E251E4C701B6017BD34B01DB
S11311905C01C7DB6B017C014AE050E0C80153DF0E
S11311A0C80FD91FB60180E090E0E7DB9B01AC01DA
S11311B0C501B4014CDB6B017C017A947110E0CF62
S11311C0CE01DF91CF911F910F91FF90EF90DF90AF
S11311D0CF90BF90AF909F908F907F9008950F9382
S11311E01F93CF93DF93EC0133DF8C01CE01C5DE77
S11311F0800F911FDF91CF911F910F9108950F934D
S11312001F93CF93DF93EC0189D0688779878A870E
S11312109B87E881F9810284F385E02DCE0119953D
S113122097FF16C07BD0088519852A853B85DC018C
S1131230CB01801B910BA20BB30B0C811D812E8162
S11312403F8180179107A207B30718F38FEF9FEF31
S1131250DF91CF911F910F9108950F931F93CF9317
S1131260DF93EC018B0165E272E01FD2C801C7DF96
S113127097FD04C0682FCE0158D2F8CFCE01DF917C
S1131280CF911F910F9108951F920F920FB60F9255
S113129011242F933F938F939F93AF93BF93809188
S11312A0DC029091DD02A091DE02B091DF02309168
S11312B0DB0223E0230F2D3720F40196A11DB11D7D
S11312C005C026E8230F0296A11DB11D2093DB0261
S11312D08093DC029093DD02A093DE02B093DF02E0
S11312E08091E0029091E102A091E202B091E302C8
S11312F00196A11DB11D8093E0029093E102A09399
S1131300E202B093E302BF91AF919F918F913F911D
S11313102F910F900FBE0F901F9018952FB7F89430
S11313206091DC027091DD028091DE029091DF0217
S11313302FBF08958230910538F0880F991F880FC8
S1131340991F05970197F1F70895789484B5826001
S113135084BD84B5816084BD85B5826085BD85B555
S1131360816085BDEEE6F0E0808181608083E1E804
S1131370F0E010828081826080838081816080833C
S1131380E0E8F0E0808181608083E1EBF0E080813F
S113139084608083E0EBF0E0808181608083E1E918
S11313A0F0E0808182608083808181608083E0E9D5
S11313B0F0E0808181608083E1EAF0E080818260F6
S11313C08083808181608083E0EAF0E080818160B5
S11313D08083E1E2F1E080818260808380818160AA
S11313E08083E0E2F1E0808181608083EAE7F0E0DD
S11313F08081846080838081826080838081816039
S113140080838081806880831092C100089590E079
S1131410FC013197E231F10508F04DC08827EE5800
S1131420FF4F8F4FB8C2809180008F7703C08091A7
S113143080008F7D80938000089580918000877F55
S1131440F9CF84B58F7702C084B58F7D84BD0895AC
S11314508091B0008F7703C08091B0008F7D80931E
S1131460B0000895809190008F7707C0809190001C
S11314708F7D03C080919000877F809390000895B2
S11314808091A0008F7707C08091A0008F7D03C05A
S11314908091A000877F8093A0000895809120010F
S11314A08F7707C0809120018F7D03C08091200138
S11314B0877F809320010895CF93DF9390E0FC0110
S11314C0E757FE4F2491FC01E153FE4F849188239A
S11314D061F190E0880F991FFC01E75BFD4FC59116
S11314E0D491FC01E15DFD4FA591B491611109C056
S11314F09FB7F8948881209582238883EC912E23CA
S11315000BC0623061F49FB7F8948881322F309514
S113151083238883EC912E2B2C939FBF06C08FB717
S1131520F894E8812E2B28838FBFDF91CF91089503
S11315301F93CF93DF93282F30E0F901ED5BFE4F2B
S11315408491F901E757FE4FD491F901E153FE4F1D
S1131550C491CC23B9F0162F811159DFEC2FF0E0A0
S1131560EE0FFF1FE15DFD4FA591B4919FB7F89475
S1131570111104C08C91D095D82302C0EC91DE2BBC
S1131580DC939FBFDF91CF911F910895CF93DF9399
S1131590282F30E0F901ED5BFE4F8491F901E75704
S11315A0FE4FD491F901E153FE4FC491CC2389F04D
S11315B081112DDFEC2FF0E0EE0FFF1FEB5EFD4FEE
S11315C0A591B491EC91ED2381E090E021F480E0C9
S11315D002C080E090E0DF91CF910895FC0180810A
S11315E0918192C2CF93DF93EC0188819981009716
S11315F009F08AD2198218821D821C821B821A82E7
S1131600DF91CF9108950F931F93CF93DF93EC0154
S11316108B016F5F7F4F88819981FFD2009731F0F2
S1131620998388831B830A8381E001C080E0DF9172
S1131630CF911F910F910895CF93DF93EC0188818F
S11316409981892B29F08A819B818617970758F401
S1131650CE01D9DF882341F08C819D81892B19F437
S1131660E881F981108281E0DF91CF910895EF92B2
S1131670FF920F931F93CF93DF93EC017B018A01B9
S1131680BA01DADF811103C0CE01ACDF06C01D83CD
S11316900C83B701888199811DD5CE01DF91CF914B
S11316A01F910F91FF90EF900895FC011182108219
S11316B013821282158214826115710549F0FB01AF
S11316C001900020E9F73197AF01461B570BCFCFAC
S11316D00895EF92FF920F931F93CF93DF936115B9
S11316E0710511F480E01AC041155105B1F07B0178
S11316F0EC018C819D818A01080F191FB801CE016C
S11317009BDF882379F3288139818C819D81B701FE
S1131710820F931FDFD41D830C8381E0DF91CF916F
S11317201F910F91FF90EF900895CF93DF931F9235
S11317301F92CDB7DEB769831A8241E050E0BE0143
S11317406F5F7F4FC6DF0F900F90DF91CF910895A9
S11317500F931F93CF93DF934115510511F1611539
S11317607105F9F0DC011496ED91FC9115972E1793
S11317703F0718F0FB01108214C0E21BF30BEA01CF
S11317802197EC17FD0708F4EF018B01FC01608140
S11317907181620F731FAE01C801ADD4C00FD11F98
S11317A01882DF91CF911F910F91089578D908F491
S11317B081E008950CD035C92DD940F024D930F0FA
S11317C021F45F3F19F016C951115FC919C93AD9FB
S11317D098F39923C9F35523B1F3951B550BBB27F4
S11317E0AA2762177307840738F09F5F5F4F220FA1
S11317F0331F441FAA1FA9F333D00E2E3AF0E0E89A
S113180030D091505040E695001CCAF729D0FE2FE5
S113181027D0660F771F881FBB1F26173707480777
S1131820AB07B0E809F0BB0B802DBF01FF2793582D
S11318305F4F2AF09E3F510568F0DCC826C95F3F20
S1131840ECF3983EDCF3869577956795B795F79515
S11318509F5FC9F7880F911D9695879597F908950D
S1131860E1E0660F771F881FBB1F621773078407A9
S1131870BA0720F0621B730B840BBA0BEE1F88F7B8
S1131880E09508950BD0CDC8BED828F0C3D818F081
S1131890952309F0AFC8B4C81124F7C8D3D8A0F36E
S11318A0959FD1F3950F50E0551F629FF001729FF1
S11318B0BB27F00DB11D639FAA27F00DB11DAA1F10
S11318C0649F6627B00DA11D661F829F2227B00D5D
S11318D0A11D621F739FB00DA11D621F839FA00DE8
S11318E0611D221F749F3327A00D611D231F849F38
S11318F0600D211D822F762F6A2F11249F5750408F
S11319008AF0E1F088234AF0EE0FFF1FBB1F661F29
S1131910771F881F91505040A9F79E3F510570F0E2
S113192069C8B3C85F3FECF3983EDCF386957795BE
S11319306795B795F795E7959F5FC1F7FE2B880FDD
S1131940911D9695879597F90895A9D8880B990BB9
S11319500895A1E21A2EAA1BBB1BFD010DC0AA1FEC
S1131960BB1FEE1FFF1FA217B307E407F50720F004
S1131970A21BB30BE40BF50B661F771F881F991F7F
S11319801A9469F760957095809590959B01AC01C8
S1131990BD01CF010895EE0FFF1F881F8BBF079075
S11319A0F691E02D199409D0A59F900DB49F900D48
S11319B0A49F800D911D11240895A29FB001B39F8F
S11319C0C001A39F700D811D1124911DB29F700D44
S11319D0811D1124911D08950F931F93CF93DF93BD
S11319E08230910510F482E090E0E091E602F091FB
S11319F0E70220E030E0A0E0B0E0309719F1408148
S1131A0051810281138148175907C8F0841795073B
S1131A1069F4109731F012960C93129713961C9355
S1131A2027C00093E6021093E70222C02115310576
S1131A3019F04217530718F49A01BD01EF01DF01B1
S1131A40F801DBCF21153105F9F0281B390B2430BF
S1131A50310580F48A819B816115710521F0FB01B8
S1131A609383828304C09093E7028093E602FE018D
S1131A70329644C0FE01E20FF31F819391932250EA
S1131A803109398328833AC02091E4023091E50278
S1131A90232B41F420910202309103023093E5029A
S1131AA02093E402209100023091010221153105B6
S1131AB041F42DB73EB74091040250910502241B16
S1131AC0350BE091E402F091E502E217F307A0F48C
S1131AD02E1B3F0B2817390778F0AC014E5F5F4F80
S1131AE02417350748F04E0F5F1F5093E5024093CB
S1131AF0E4028193919302C0E0E0F0E0CF01DF9132
S1131B00CF911F910F910895CF93DF93009709F41C
S1131B1081C0FC01329713821282A091E602B09137
S1131B20E702109781F420813181820F931F209165
S1131B30E4023091E5022817390751F5F093E502E4
S1131B40E093E40267C0ED0120E030E0CE17DF0748
S1131B5040F44A815B819E0141155105F1F0EA018F
S1131B60F5CFD383C28340815181840F951FC81759
S1131B70D90759F488819981840F951F029691831E
S1131B8080838A819B81938382832115310529F483
S1131B90F093E702E093E6023DC0E901FB83EA83A8
S1131BA049915991C40FD51FEC17FD0761F4808149
S1131BB09181840F951F0296E9019983888382811C
S1131BC093819B838A83E0E0F0E012968D919C914F
S1131BD01397009719F0FD01DC01F7CF8D919C91CB
S1131BE011979D012E5F3F4F820F931F2091E402B6
S1131BF03091E5022817390769F4309729F41092D7
S1131C00E7021092E60202C013821282B093E50248
S1131C10A093E402DF91CF9108956F927F928F9207
S1131C209F92AF92BF92CF92DF92EF92FF920F9367
S1131C301F93CF93DF93009781F4CB01DF91CF9172
S1131C401F910F91FF90EF90DF90CF90BF90AF90D6
S1131C509F908F907F906F90BFCEFC01E60FF71F8F
S1131C609C0122503109E217F30708F4A5C0EC01E6
S1131C70D9010D911C91119706171707A8F005308B
S1131C80110508F497C0C80104978617970708F44C
S1131C9091C002501109061B170B019311936D9308
S1131CA07C93CF0131DF86C05B01A01AB10A4C01DD
S1131CB0800E911EA091E602B091E702612C712C76
S1131CC0E12CF12C109709F446C08D919C91119749
S1131CD0A815B905B1F56C0142E0C40ED11CCA14B3
S1131CE0DB0478F14C018A189B08640142E0C40EBD
S1131CF0D11C1296BC9012971396AC91B5E0CB16FA
S1131D00D10440F0B282A38391828082D9016D9381
S1131D107C9309C00E5F1F4F800F911FF9019183BF
S1131D208083EB2DFA2FE114F10431F0D7011396DF
S1131D30FC93EE9312973EC0F093E702E093E60221
S1131D4039C06816790608F43C017D0112960D909D
S1131D50BC91A02DB7CF8091E4029091E502881642
S1131D609906E1F466167706C8F480910002909112
S1131D700102009741F48DB79EB74091040250913F
S1131D800502841B950BE817F907B0F4F093E502FC
S1131D90E093E402F901718360830CC0CB011CDE83
S1131DA07C01009749F0A801BE018BD1CE01ACDEC5
S1131DB0C70104C0CE0102C080E090E0DF91CF9162
S1131DC01F910F91FF90EF90DF90CF90BF90AF9055
S1131DD09F908F907F906F9008958F929F92AF9273
S1131DE0BF92CF92DF92EF92FF920F931F93CF9304
S1131DF0DF93EC016B016115710519F0FB0191830F
S1131E0080837E01FFEFEF1AFF0A0881802F90E0A4
S1131E1038D1892B11F0E701F4CF0D3239F47E016A
S1131E2082E0E80EF11C098111E008C00B3229F4AC
S1131E307E0192E0E90EF11C098110E0E70121978F
S1131E4043E050E060E171E0CE0123D1892BB9F485
S1131E50239645E050E06BE071E0CE011AD1892B66
S1131E6009F42596C114D10419F0F601D183C08375
S1131E701111F1C060E070E080E89FE7F5C043E035
S1131E8050E068E071E0CE0104D1892B59F4C1140B
S1131E90D10409F4E5C0F2E0EF0EF11CF601F18281
S1131EA0E082DEC020E030E0A901C0E0D0E0F7012C
S1131EB060EDA62EA00E89E08A1528F1912F92607C
S1131EC0B92E812F887012FF04C0811123C021967E
S1131ED021C081112197A5E0B0E065DDDC01CB01D3
S1131EE0880F991FAA1FBB1F9C01AD012A0D311D2C
S1131EF0411D511D283989E93807480789E15807E8
S1131F0048F0166006C09EEFA9120AC013FD40C037
S1131F101860B12E8FEFE81AF80A00811B2DC7CF85
S1131F20802F8F7D8534A1F580818D3211F410616D
S1131F3006C08B3221F0319661E070E004C08181EB
S1131F40329662E070E080538A3018F0E61BF70B9B
S1131F501FC060E070E060389CE079075CF4DB014E
S1131F60AA0FBB1FAA0FBB1F6A0F7B1F660F771F29
S1131F70680F711D3196DF0111978C9180538A305F
S1131F8050F314FF03C0719561957109C60FD71FF3
S1131F9011FF08C0C114D10429F0CF010197F60143
S1131FA091838083CA01B9010E94BD04212F23704B
S1131FB0233019F04B015C0106C04B015C01B7FAF8
S1131FC0B094B7F8B09420E030E0A901C501B401A1
S1131FD0EDDB882309F43CC0D7FF06C0D195C19539
S1131FE0D10907E211E002C00FE311E06801F8E152
S1131FF0CF1AD10890E2E92EF12CCE15DF056CF052
S1132000F8012591359145915491C501B4013ADC0B
S11320104B015C01CE19DF09F0CF04501109F5948E
S1132020E7940C151D0549F78A2D880F8B2D881F01
S11320308F3F41F020E030E0A901C501B401B6DBD7
S1132040811106C082E290E09093E9028093E80255
S1132050C501B40109C060E070E080E89FEF04C0EE
S113206060E070E080EC9FE7DF91CF911F910F91CA
S1132070FF90EF90DF90CF90BF90AF909F908F90A4
S11320800895911147C0803219F089508550D0F7D6
S11320900895FB01DC014150504088F08D9181345A
S11320A01CF08B350CF4805E659161341CF06B354B
S11320B00CF4605E861B611171F3990B0895881B03
S11320C0FCCFFB01DC0102C001900D924150504055
S11320D0D8F70895FB01DC0101900D920020E1F78F
S11320E00895DC016C9161546A3108F060526F59B3
S11320F06D93C1F70895FB01DC014150504048F055
S113210001900D920020C9F701C01D92415050402A
S1112110E0F70895992788270895F894FFCFE3
S113211E0000EA022000436F6E6E65637465642EE0
S113212E00000000000D067707A105530673058D08
S113213E057F050D0A006E616E00696E66006F768E
S105214E660025
S9030000FC
