S012000033442D5072696E7465722E737265638A
S113000032C1000060C100005EC100005CC100009C
S11300105AC1000058C1000056C1000054C100007C
S113002052C1000050C100004EC100004CC100008C
S11300304AC1000048C1000046C1000044C100009C
S113004042C1000040C100003EC100003CC10000AC
S11300503AC1000038C1000036C100009DC500004F
S113006032C1000062C4000096C400002CC100002C
S11300702AC1000028C1000026C1000024C10000DC
S113008022C1000020C100001EC100001CC10000EC
S11300901AC1000018C1000016C1000014C10000FC
S11300A012C1000010C100000EC100000CC100000C
S11300B00AC1000008C1000006C1000004C100001C
S11300C002C1000000C10000FEC00000FCC000002E
S11300D0FAC00000F8C00000F6C00000F4C0000040
S11300E0F2C00000FC06FF06EE06F206F80636072C
S11300F0030707070D07110715071B071F0723072A
S1130100360729072D0731074E414E494E495459A8
S1130110494E46CDCCCC3D0AD7233C17B7D13877CE
S1130120CC2B329595E6241FB14F0A0000204100E4
S113013000C84200401C4620BCBE4CCA1B0E5AAE2E
S1130140C59D7400000A0B02090C0D0E0807030478
S1130150010000000000000000000000000000009A
S11301600000000000000000000000000000001279
S1130170111000000000000000000000000000005A
S11301800000000000000000000102102020080808
S113019010204010204080020102010804020101E5
S11301A002040810204080804020100804020180CE
S11301B00402018040201008040201080402010125
S11301C00204081020408001020408102040800529
S11301D0050505070508080808020202020A0A08BC
S11301E008040404040101010101010101030303E2
S11301F00303030303040707070C0C0C0C0C0C0C7F
S11302000C0202020206060606060606060B0B0B85
S11302100B0B0B0B0B000020002300260029002CE5
S1130220002F003200000100000301060109010053
S1130230002200250028002B002E0031003400028B
S1130240010000050108010B010000210024002722
S1130250002A002D003000330001010000040107D2
S1130260010A0100FD0411241FBECFEFD1E2DEBF5D
S1130270CDBF00E00CBF12E0A0E0B2E0EEE0FBE195
S113028000E00BBF02C007900D92A634B107D9F766
S113029022E0A6E4B2E001C01D92A23FB207E1F75A
S11302A011E0C3E3D1E000E006C021970109802FEB
S11302B0FE010E94C409C233D10780E00807A9F7F0
S11302C0CAD30C94850D9CCEDDD0AED026E040E0A0
S11302D051EE60E070E086E492E0C4D266E072E041
S11302E086E492E004C44F925F926F927F928F9261
S11302F09F92AF92BF92CF92DF92EF920F931F9390
S1130300CF93DF93CDB7DEB762970FB6F894DEBF15
S11303100FBECDBF4DB65EB668E372E0CE01079660
S11303209FD682E00ED65C018FE00BD64C0183E1B0
S113033008D63C0186E492E094D1892B09F456C096
S1130340CDB6DEB660E172E086E492E0D0D366E436
S113035072E0CE01019609D44D815E818DB79EB7BE
S1130360841B950B0FB6F8949EBF0FBE8DBF0DB7BF
S11303701EB70F5F1F4F20E030E0B801CE01019699
S1130380C2D6C80163D0C8010E94690D68E7C801DC
S11303906AD00DD17A8B698B69E7C80164D007D123
S11303A0788B6F876AE7C8015ED001D17E876D873D
S11303B0EE24E394672809F4E12C01E0892809F488
S11303C000E021E0AB2809F420E0AE01435F5F4F79
S11303D0BE01615F7F4FCE01419678D0CE01019678
S11303E0D8D50FB6F894DEBE0FBECDBECE010796AB
S11303F0D0D50FB6F8945EBE0FBE4DBE62960FB652
S1130400F894DEBF0FBECDBFDF91CF911F910F9146
S1130410EF90DF90CF90BF90AF909F908F907F90A0
S11304206F905F904F90089560E082E020D560E087
S11304308FE01DD560E083E11AD561E082E053D5F9
S113044061E08FE050D561E083E14DC5FC0121916D
S1130450222331F0DC012C932032C9F30196F7CF2B
S1130460FC0110820895FC012191CF01222331F077
S11304702613F9CF60E070E00C94E60B60E070E0C6
S1130480CB01089561E087E3F2D461E08DE3EFD41A
S113049061E080E3ECD461E086E2E9D461E088E3E2
S11304A0E6D461E08EE3E3D461E085E3E0D461E087
S11304B081E3DDD461E088E2DAD461E086E3D7D475
S11304C061E08CE3D4D461E08EE2D1C4AF92BF92F8
S11304D0CF92DF92EF920F931F93CF93DF935C0140
S11304E06B01EA01122FFC01808191811816190613
S11304F02CF4211103C060E086E3F5D4F601808179
S11305009181181619062CF4011103C060E08CE3E4
S1130510EAD488819981181619062CF4E11003C0D5
S113052060E08EE2E0D461E070E080E090E0AFD380
S1130530F50180819181181619065CF4111109C026
S113054061E086E3D0D4F5018081918101979183A4
S11305508083F60180819181181619065CF40111DB
S113056009C061E08CE3BFD4F601808191810197D9
S113057091838083888199811816190654F4E110B7
S113058008C060E08EE2AFD4888199810197998395
S1130590888361E070E080E090E0DF91CF911F916B
S11305A00F91EF90DF90CF90BF90AF9070C304D0C5
S11305B06894B11150C0089533D088F09F5790F0DB
S11305C0B92F9927B751A0F0D1F0660F771F881F74
S11305D0991F1AF0BA95C9F712C0B13081F03AD018
S11305E0B1E0089537C0672F782F8827B85F39F0B6
S11305F0B93FCCF3869577956795B395D9F73EF4D3
S113060090958095709561957F4F8F4F9F4F08957A
S113061057FD9058440F551F59F05F3F71F04795AF
S1130620880F97FB991F61F09F3F79F08795089594
S1130630121613061406551FF2CF4695F1DF08C0B3
S1130640161617061806991FF1CF869571056105D0
S113065008940895E894BB2766277727CB0197F978
S11306600895FC01918D228D892F90E0805C9F4F2D
S1130670821B91098F7399270895FC01918D828DB6
S1130680981731F0828DE80FF11D858D90E0089563
S11306908FEF9FEF0895FC01918D828D981761F083
S11306A0828DDF01A80FB11D5D968C91928D9F5FA5
S11306B09F73928F90E008958FEF9FEF0895FC0150
S11306C0538D448D252F30E0842F90E0821B930BB3
S11306D0541710F0CF9608950197089584EF94E08D
S11306E0892B39F080E090E0892B19F07DD18111BC
S11306F025C080E090E0892B41F080E090E0892BD8
S113070021F00E94000081111CC080E090E0892B40
S113071041F080E090E0892B21F00E9400008111DB
S113072013C080E090E0892BA1F080E090E0892B59
S113073081F00E94000081110AC008950E94000007
S1130740D8CF0E940000E1CF0E940000EACF0C94B1
S113075000000895FC01848DDF01A80FB11DA35A88
S1130760BF4F2C91848D90E001968F739927848FCD
S1130770A689B7892C93A089B1898C9180648C93C4
S1130780938D848D981306C00288F389E02D8081AF
S11307908F7D80830895EF92FF920F931F93CF93E1
S11307A0DF93EC0181E0888F9B8D8C8D981305C0BD
S11307B0E889F989808185FD23C0F62E0B8D10E030
S11307C00F5F1F4F0F731127E02E8C8DE8120BC0A3
S11307D00FB607FCFACFE889F989808185FFF5CF48
S11307E0CE01B8DFF2CF8B8DFE01E80FF11DE35A85
S11307F0FF4FF0820B8FEA89FB898081806207C0FA
S1130800EE89FF896083E889F98980818064808327
S113081081E090E0DF91CF911F910F91FF90EF90D5
S11308200895CF93DF93EC01888D8823C1F0EA8982
S1130830FB89808185FD05C0A889B9898C9186FDD5
S11308400EC00FB607FCF5CF808185FFF2CFA889D3
S1130850B9898C9185FFEDCFCE017CDFE8CFDF91A4
S1130860CF910895CF92DF92EF92FF921F93CF938F
S1130870DF93EC016A017B01122FE889F98982E098
S113088080834115514E61057105A9F060E079E05E
S11308908DE390E0A701960155D5DA01C9010197CE
S11308A0A109B109B695A795979587959C0121153E
S11308B080E13807A0F0E889F989108260E874E8DB
S11308C08EE190E0A70196013DD5DA01C9010197B7
S11308D0A109B109B695A795979587959C01EC85D3
S11308E0FD853083EE85FF852083188EEC89FD8994
S11308F01083EA89FB89808180618083EA89FB898E
S1130900808188608083EA89FB8980818068808314
S1130910EA89FB8980818F7D8083DF91CF911F914C
S1130920FF90EF90DF90CF9008951F920F920FB633
S11309300F9211240BB60F922F938F939F93EF93E3
S1130940FF93E0915602F09157028081E0915C029E
S1130950F0915D0282FD12C0908180915F028F5FF1
S11309608F7320916002821751F0E0915F02F0E0F2
S1130970EA5BFD4F958F80935F0201C08081FF91F8
S1130980EF919F918F912F910F900BBE0F900FBEFF
S11309900F901F9018951F920F920FB60F9211246B
S11309A00BB60F922F933F934F935F936F937F9365
S11309B08F939F93AF93BF93EF93FF9386E492E05B
S11309C0C9DEFF91EF91BF91AF919F918F917F917C
S11309D06F915F914F913F912F910F900BBE0F90AC
S11309E00FBE0F901F90189586E492E03ADE21E046
S11309F0892B09F420E0822F0895E6E4F2E01382C3
S1130A00128288EE93E0A0E0B0E084839583A6830D
S1130A10B78388E292E09183808385EC90E09587A8
S1130A20848784EC90E09787868780EC90E0918BB4
S1130A30808B81EC90E0938B828B82EC90E0958BA1
S1130A40848B86EC90E0978B868B118E128E138E9E
S1130A50148E0895089554D1FDDF36DCCEE6D3E03C
S1130A6042DC2097E9F33ADEFBCFCF92DF92EF929C
S1130A70FF920F931F93CF93DF936C017A018B0145
S1130A80C0E0D0E0CE15DF0581F0D8016D918D0175
S1130A90D601ED91FC910190F081E02DC6011995EC
S1130AA0892B11F02196EECF7E01C701DF91CF9102
S1130AB01F910F91FF90EF90DF90CF9008956115F3
S1130AC0710579F0FB0101900020E9F73197AF013E
S1130AD0461B570BDC01ED91FC910280F381E02D64
S1130AE0199480E090E0089566E372E0E8CF0F93F4
S1130AF01F93CF93DF93EC01E2DF8C01CE01F4DF8F
S1130B00800F911FDF91CF911F910F9108950F9343
S1130B101F93CF93DF93EC0189D0688779878A8705
S1130B209B87E881F9810284F385E02DCE01199534
S1130B3097FF16C07BD0088519852A853B85DC0183
S1130B40CB01801B910BA20BB30B0C811D812E8159
S1130B503F8180179107A207B30718F38FEF9FEF28
S1130B60DF91CF911F910F9108950F931F93CF930E
S1130B70DF93EC018B0168E372E072D2C801C7DF36
S1130B8097FD04C0682FCE01ABD2F8CFCE01DF9120
S1130B90CF911F910F9108951F920F920FB60F924C
S1130BA011242F933F938F939F93AF93BF9380917F
S1130BB0E4029091E502A091E602B091E70230913F
S1130BC0E30223E0230F2D3720F40196A11DB11D6C
S1130BD005C026E8230F0296A11DB11D2093E30250
S1130BE08093E4029093E502A093E602B093E702B7
S1130BF08091E8029091E902A091EA02B091EB029F
S1130C000196A11DB11D8093E8029093E902A0937F
S1130C10EA02B093EB02BF91AF919F918F913F9104
S1130C202F910F900FBE0F901F9018952FB7F89427
S1130C306091E4027091E5028091E6029091E702EE
S1130C402FBF08953FB7F8948091E8029091E9028C
S1130C50A091EA02B091EB0226B5A89B05C02F3FF4
S1130C6019F00196A11DB11D3FBFBA2FA92F982FCE
S1130C708827820F911DA11DB11DBC01CD0142E049
S1130C80660F771F881F991F4A95D1F708958F9291
S1130C909F92AF92BF92CF92DF92EF92FF926B013D
S1130CA07C01D0DF4B015C01C114D104E104F104E7
S1130CB0F1F057D2C7DFDC01CB0188199909AA09E1
S1130CC0BB09883E9340A105B10570F321E0C21A27
S1130CD0D108E108F10888EE880E83E0981EA11C73
S1130CE0B11CC114D104E104F10421F7DDCFFF905C
S1130CF0EF90DF90CF90BF90AF909F908F9008952A
S1130D00789484B5826084BD84B5816084BD85B5E2
S1130D10826085BD85B5816085BDEEE6F0E08081A9
S1130D2081608083E1E8F0E01082808182608083CA
S1130D30808181608083E0E8F0E08081816080834D
S1130D40E1EBF0E0808184608083E0EBF0E080817F
S1130D5081608083E1E9F0E080818260808380812A
S1130D6081608083E0E9F0E0808181608083E1EA52
S1130D70F0E0808182608083808181608083E0EA0A
S1130D80F0E0808181608083E1E2F1E08081826033
S1130D908083808181608083E0E2F1E080818160F2
S1130DA08083EAE7F0E080818460808380818260D0
S1130DB080838081816080838081806880831092B9
S1130DC0C100089590E0FC013197E231F10508F08B
S1130DD04DC08827EE58FF4F8F4FD6C280918000B8
S1130DE08F7703C0809180008F7D80938000089569
S1130DF080918000877FF9CF84B58F7702C084B556
S1130E008F7D84BD08958091B0008F7703C0809159
S1130E10B0008F7D8093B0000895809190008F770B
S1130E2007C0809190008F7D03C080919000877FE0
S1130E308093900008958091A0008F7707C08091DF
S1130E40A0008F7D03C08091A000877F8093A000C5
S1130E500895809120018F7707C0809120018F7DB4
S1130E6003C080912001877F809320010895CF9350
S1130E70DF9390E0FC01E757FE4F2491FC01E1531E
S1130E80FE4F8491882361F190E0880F991FFC0143
S1130E90E75BFD4FC591D491FC01E15DFD4FA59148
S1130EA0B491611109C09FB7F89488812095822379
S1130EB08883EC912E230BC0623061F49FB7F894C1
S1130EC08881322F309583238883EC912E2B2C93A9
S1130ED09FBF06C08FB7F894E8812E2B28838FBF5D
S1130EE0DF91CF9108951F93CF93DF93282F30E0A4
S1130EF0F901ED5BFE4F8491F901E757FE4FD49160
S1130F00F901E153FE4FC491CC23B9F0162F81119E
S1130F1059DFEC2FF0E0EE0FFF1FE15DFD4FA591CF
S1130F20B4919FB7F894111104C08C91D095D82333
S1130F3002C0EC91DE2BDC939FBFDF91CF911F9118
S1130F400895CF93DF93282F30E0F901ED5BFE4F36
S1130F508491F901E757FE4FD491F901E153FE4F13
S1130F60C491CC2389F081112DDFEC2FF0E0EE0F3A
S1130F70FF1FEB5EFD4FA591B491EC91ED2381E051
S1130F8090E021F480E002C080E090E0DF91CF9116
S1130F900895FC0180819181B0C2CF93DF93EC016D
S1130FA088819981009709F0A8D2198218821D823C
S1130FB01C821B821A82DF91CF9108950F931F9395
S1130FC0CF93DF93EC018B016F5F7F4F8881998111
S1130FD01DD3009731F0998388831B830A8381E0B2
S1130FE001C080E0DF91CF911F910F910895CF93BD
S1130FF0DF93EC0188819981892B29F08A819B8177
S11310008617970758F4CE01D9DF882341F08C81E5
S11310109D81892B19F4E881F981108281E0DF91A7
S1131020CF910895EF92FF920F931F93CF93DF9385
S1131030EC017B018A01BA01DADF811103C0CE0120
S1131040ACDF06C01D830C83B701888199813AD532
S1131050CE01DF91CF911F910F91FF90EF900895F2
S1131060FC0111821082138212821582148261158E
S1131070710549F0FB0101900020E9F73197AF01B8
S1131080461B570BCFCF0895EF92FF920F931F93F8
S1131090CF93DF936115710511F480E01AC04115F7
S11310A05105B1F07B01EC018C819D818A01080F0F
S11310B0191FB801CE019BDF882379F32881398178
S11310C08C819D81B701820F931FFCD41D830C83F7
S11310D081E0DF91CF911F910F91FF90EF900895E0
S11310E0CF93DF931F921F92CDB7DEB769831A8225
S11310F041E050E0BE016F5F7F4FC6DF0F900F905D
S1131100DF91CF9108950F931F93CF93DF934115F0
S1131110510511F161157105F9F0DC011496ED9199
S1131120FC9115972E173F0718F0FB01108214C08D
S1131130E21BF30BEA012197EC17FD0708F4EF011A
S11311408B01FC0160817181620F731FAE01C801C4
S1131150CAD4C00FD11F1882DF91CF911F910F9174
S11311600895089540D008F481E00895E89409C0F2
S113117097FB3EF490958095709561957F4F8F4FC6
S11311809F4F9923A9F0F92F96E9BB279395F695DC
S1131190879577956795B795F111F8CFFAF4BB0F5A
S11311A011F460FF1BC06F5F7F4F8F4F9F4F16C0BE
S11311B0882311F096E911C0772321F09EE8872F48
S11311C0762F05C0662371F096E8862F70E060E004
S11311D02AF09A95660F771F881FDAF7880F96957D
S11311E0879597F90895990F0008550FAA0BE0E821
S11311F0FEEF16161706E807F907C0F012161306D5
S1131200E407F50798F0621B730B840B950B39F414
S11312100A2661F0232B242B252B21F408950A267A
S113122009F4A140A6958FEF811D811D089597F9BA
S11312309F6780E870E060E008959FEF80EC089578
S113124000240A94161617061806090608950024A1
S11312500A9412161306140605060895092E03941B
S1131260000C11F4882352F0BB0F40F4BF2B11F48F
S113127060FF04C06F5F7F4F8F4F9F4F08950BD067
S1131280EDCFDEDF28F0E3DF18F0952309F0CFCFB0
S1131290D4CF1124E0C9BCD9A0F3959FD1F3950F05
S11312A050E0551F629FF001729FBB27F00DB11DE6
S11312B0639FAA27F00DB11DAA1F649F6627B00D76
S11312C0A11D661F829F2227B00DA11D621F739F5F
S11312D0B00DA11D621F839FA00D611D221F749F6D
S11312E03327A00D611D231F849F600D211D822FB4
S11312F0762F6A2F11249F5750408AF0E1F08823FB
S11313004AF0EE0FFF1FBB1F661F771F881F915007
S11313105040A9F79E3F510570F089CF9CC95F3FAB
S1131320ECF3983EDCF3869577956795B795F7953A
S1131330E7959F5FC1F7FE2B880F911D96958795C2
S113134097F90895A1E21A2EAA1BBB1BFD010DC03B
S1131350AA1FBB1FEE1FFF1FA217B307E407F50761
S113136020F0A21BB30BE40BF50B661F771F881F3D
S1131370991F1A9469F760957095809590959B01D3
S1131380AC01BD01CF010895EE0FFF1F881F8BBF75
S11313900790F691E02D199409D0A59F900DB49F64
S11313A0900DA49F800D911D11240895A29FB0015A
S11313B0B39FC001A39F700D811D1124911DB29F85
S11313C0700D811D1124911D08950F931F93CF93C8
S11313D0DF938230910510F482E090E0E091EE0218
S11313E0F091EF0220E030E0A0E0B0E0309719F196
S11313F0408151810281138148175907C8F084172D
S1131400950769F4109731F012960C93129713967E
S11314101C9327C00093EE021093EF0222C0211503
S1131420310519F04217530718F49A01BD01EF0171
S1131430DF01F801DBCF21153105F9F0281B390B49
S11314402430310580F48A819B816115710521F076
S1131450FB019383828304C09093EF028093EE0296
S1131460FE01329644C0FE01E20FF31F8193919373
S113147022503109398328833AC02091EC023091FB
S1131480ED02232B41F420910202309103023093A8
S1131490ED022093EC02209100023091010221150B
S11314A0310541F42DB73EB7409104025091050235
S11314B0241B350BE091EC02F091ED02E217F307E7
S11314C0A0F42E1B3F0B2817390778F0AC014E5FB0
S11314D05F4F2417350748F04E0F5F1F5093ED02FE
S11314E04093EC028193919302C0E0E0F0E0CF01DD
S11314F0DF91CF911F910F910895CF93DF930097C0
S113150009F481C0FC01329713821282A091EE0289
S1131510B091EF02109781F420813181820F931FE3
S11315202091EC023091ED022817390751F5F09320
S1131530ED02E093EC0267C0ED0120E030E0CE174D
S1131540DF0740F44A815B819E0141155105F1F0AA
S1131550EA01F5CFD383C28340815181840F951F63
S1131560C817D90759F488819981840F951F029669
S1131570918380838A819B819383828321153105A2
S113158029F4F093EF02E093EE023DC0E901FB83FE
S1131590EA8349915991C40FD51FEC17FD0761F4F3
S11315A080819181840F951F0296E9019983888334
S11315B0828193819B838A83E0E0F0E012968D918F
S11315C09C911397009719F0FD01DC01F7CF8D91E1
S11315D09C9111979D012E5F3F4F820F931F209185
S11315E0EC023091ED022817390769F4309729F499
S11315F01092EF021092EE0202C013821282B09394
S1131600ED02A093EC02DF91CF9108956F927F9247
S11316108F929F92AF92BF92CF92DF92EF92FF92FE
S11316200F931F93CF93DF93009781F4CB01DF9146
S1131630CF911F910F91FF90EF90DF90CF90BF90CB
S1131640AF909F908F907F906F90BFCEFC01E60F7C
S1131650F71F9C0122503109E217F30708F4A5C0D3
S1131660EC01D9010D911C91119706171707A8F0E9
S11316700530110508F497C0C80104978617970729
S113168008F491C002501109061B170B0193119322
S11316906D937C93CF0131DF86C05B01A01AB10A40
S11316A04C01800E911EA091EE02B091EF02612CCC
S11316B0712CE12CF12C109709F446C08D919C916A
S11316C01197A815B905B1F56C0142E0C40ED11CFF
S11316D0CA14DB0478F14C018A189B08640142E0C7
S11316E0C40ED11C1296BC9012971396AC91B5E01F
S11316F0CB16D10440F0B282A38391828082D901B7
S11317006D937C9309C00E5F1F4F800F911FF901E9
S113171091838083EB2DFA2FE114F10431F0D7018A
S11317201396FC93EE9312973EC0F093EF02E0936E
S1131730EE0239C06816790608F43C017D01129660
S11317400D90BC91A02DB7CF8091EC029091ED0249
S113175088169906E1F466167706C8F480910002AB
S113176090910102009741F48DB79EB74091040215
S113177050910502841B950BE817F907B0F4F09318
S1131780ED02E093EC02F901718360830CC0CB019C
S11317901CDE7C01009749F0A801BE018AD1CE016C
S11317A0ACDEC70104C0CE0102C080E090E0DF914E
S11317B0CF911F910F91FF90EF90DF90CF90BF904A
S11317C0AF909F908F907F906F9008958F929F928B
S11317D0AF92BF92CF92DF92EF92FF920F931F933B
S11317E0CF93DF93EC016B016115710519F0FB01D7
S11317F0918380837E01FFEFEF1AFF0A0881802F17
S113180090E037D1892B11F0E701F4CF0D3239F490
S11318107E0182E0E80EF11C098111E008C00B3260
S113182029F47E0192E0E90EF11C098110E0E70140
S1131830219743E050E060E171E0CE0122D1892B91
S1131840B9F4239645E050E06BE071E0CE0119D184
S1131850892B09F42596C114D10419F0F601D1831A
S1131860C0831111F0C060E070E080E89FE7F4C02D
S113187043E050E068E071E0CE0103D1892B59F4D4
S1131880C114D10409F4E4C0F2E0EF0EF11CF60136
S1131890F182E082DDC020E030E0A901C0E0D0E0C8
S11318A0F70160EDA62EA00E89E08A1528F1912F8C
S11318B09260B92E812F887012FF04C0811123C059
S11318C0219621C081112197A5E0B0E065DDDC01FE
S11318D0CB01880F991FAA1FBB1F9C01AD012A0DC4
S11318E0311D411D511D283989E93807480789E10F
S11318F0580748F0166006C09EEFA9120AC013FDEF
S113190040C01860B12E8FEFE81AF80A00811B2D31
S1131910C7CF802F8F7D8534A1F580818D3211F45E
S1131920106106C08B3221F0319661E070E004C092
S11319308181329662E070E080538A3018F0E61BB1
S1131940F70B1FC060E070E060389CE079075CF43E
S1131950DB01AA0FBB1FAA0FBB1F6A0F7B1F660FF9
S1131960771F680F711D3196DF0111978C91805399
S11319708A3050F314FF03C0719561957109C60F45
S1131980D71F11FF08C0C114D10429F0CF0101975A
S1131990F60191838083CA01B901E8DB212F23700A
S11319A0233019F04B015C0106C04B015C01B7FA0E
S11319B0B094B7F8B09420E030E0A901C501B401B7
S11319C0D1DB882309F43CC0D7FF06C0D195C1956B
S11319D0D10907E211E002C00FE311E06801F8E168
S11319E0CF1AD10890E2E92EF12CCE15DF056CF068
S11319F0F8012591359145915491C501B4013FDC1D
S1131A004B015C01CE19DF09F0CF04501109F594A4
S1131A10E7940C151D0549F78A2D880F8B2D881F17
S1131A208F3F41F020E030E0A901C501B4019ADB09
S1131A30811106C082E290E09093F1028093F0025B
S1131A40C501B40109C060E070E080E89FEF04C004
S1131A5060E070E080EC9FE7DF91CF911F910F91E0
S1131A60FF90EF90DF90CF90BF90AF909F908F90BA
S1131A700895911147C0803219F089508550D0F7EC
S1131A800895FB01DC014150504088F08D91813470
S1131A901CF08B350CF4805E659161341CF06B3561
S1131AA00CF4605E861B611171F3990B0895881B19
S1131AB0FCCFFB01DC0102C001900D92415050406B
S1131AC0D8F70895FB01DC0101900D920020E1F7A5
S1131AD00895DC016C9161546A3108F060526F59C9
S1131AE06D93C1F70895FB01DC014150504048F06B
S1131AF001900D920020C9F701C01D924150504041
S1111B00E0F70895992788270895F894FFCFF9
S1131B0E0000F2022000436F6E6E6563746564001C
S1131B1E506F64616A20696C6F7363206B726F6BB4
S1131B2E6F773A0000000000CB0335055F03110404
S1131B3E31034B033D030D0A006E616E00696E6640
S1091B4E006F7666000042
S9030000FC
